:10200000008000206D2F0000552F0000552F00008C
:1020100000000000000000000000000000000000C0
:10202000000000000000000000000000552F00002C
:102030000000000000000000552F0000C12F00002C
:10204000552F0000552F0000552F0000552F000080
:10205000552F0000552F0000552F0000592F00006C
:10206000552F0000552F0000552F0000892E00002D
:10207000792E0000552F0000692E0000552F00001A
:10208000552F0000552F0000552F0000552F000040
:1020900000000000552F0000552F0000552F0000B4
:1020A000552F0000552F0000552F0000552F000020
:1020B0000000000010B5064C2378002B07D1054B1B
:1020C000002B02D0044800E000BF0123237010BDA4
:1020D000D400002000000000305A0000044B10B56E
:1020E000002B03D00349044800E000BF10BDC046E8
:1020F00000000000D8000020305A00001FB5140076
:1021000004220023019203AA00920A000100632026
:10211000039300F0F1FC03982060C043C00F40B26D
:1021200004B010BD13B5040002F016FD01AAC1B23F
:102130002000FFF7E3FFC317181AC00F16BDF0B554
:102140000668436885B01400B218050003919A42EE
:1021500003D900249E4210D29C1BAF68380002F0C5
:10216000FBFC039BC2B20093019433003900612051
:1021700000F0C2FC2B681B192B60200005B0F0BDDD
:1021800070B585680400280002F0E6FC221DC1B28B
:102190002800FFF7B3FF606870BD37B5002485687D
:1021A0000460280002F0D8FC2900C2B20194009417
:1021B0002300622000F0A0FC37BD000030B5FF25F1
:1021C000064C8A18914208D00B78013143402B40CD
:1021D0009B001B59000A5840F4E730BDFC4B00003F
:1021E000F0B50C24AFB000AF01F01AF802F09EFB7E
:1021F000012000F023FF01211A2001F0BBF801218A
:102200001A2001F003F901211B2001F0B3F801218C
:102210001B2001F0FBF87849381902F08FFA774853
:1022200000F020FAFF2800D196E000F017FA082607
:1022300030250100381902F0A0FABB19704958196D
:1022400002F07CFABB195919381902F0BEFABB1911
:102250000400581902F02AFA002C7DD1694D286833
:10226000FFF760FF002800D188E029680825B6192B
:102270007B19981900F047FA1C2379197819C918A5
:1022800014228019FFF75BFF0823FB1898197D6A59
:10229000FFF776FF0838854206D00023BB61103374
:1022A0000822BA18D01855E008230125BB616D42F9
:1022B0007A6A1300803BA34213D9082030263B18CA
:1022C0009919102338188022C018FFF738FF08200A
:1022D0003B18802228009919FFF770FF8034050011
:1022E000E6E7082030263B18991910233818121BEE
:1022F000C018FFF724FF08207B6A1A1B3B189919A6
:102300002800FFF75BFFC043BB6A8342C5D13E4B49
:10231000FA6A9A42C1D1E822C02114230825102468
:102320009202C9013948BB6100F0C8FC7B19181939
:10233000FFF726FFC02102007B191819143AC901C2
:1023400000F084F800F03AF900F092F80023BB6145
:102350007B191819FFF721FFC023DB011A6882F3EC
:1023600008882B4A93602B4B1B6818470C23F818DE
:1023700002F09CF90020BD462FB0F0BD264C20682D
:10238000FFF7D0FE0028E7D0082521681C247B1920
:10239000181900F0B8F97B191819FFF7F1FE80231E
:1023A000DB019842D8D9C0217B621C4BC901C418FB
:1023B00022001648C02500F081FC8026ED0108218E
:1023C00030237818C1181C20283BFB18320018183D
:1023D000FFF7B5FE08213022791833008A180B4820
:1023E000290000F01BFC0E4BEB1880359C42E6D810
:1023F00000237B621C3353E701500000C011002012
:10240000FC4F00000800002057804123F800002006
:1024100000ED00E0046000000400002000C0FFFFA9
:1024200080A0FFFF13B500240648230022002100EE
:10243000009401F0B1F822002100034800F0D6FB1F
:1024400013BDC046F0000020F8000020044B1960C6
:10245000044B1960044B1860044B1A607047C04667
:1024600020010020100100201C0100202401002078
:102470000C4970B50C4C0A6823680C489A180A601D
:102480000B49096809188A4209D90A4D0A4A29687C
:102490000A4800F0C3FB2B6822689B182B600023BE
:1024A000236070BD280100202C01002000E0FFFF08
:1024B000200100201001002030010020F800002041
:1024C000054A0649136810B5C85401331360402B00
:1024D00001D1FFF7CDFF10BD2C01002030010020FD
:1024E000F0B51E4B1E4F1B683A6885B09A4232D039
:1024F0001C4D2E68402E24D11B4B1C682368029370
:10250000029963684031994204D9029A00269A429E
:1025100011D29E1AA3681800039302F01DFB134BFF
:10252000C2B200930196029B0399612000F0E4FA85
:1025300023689B1923600E4A13689B1913600023BC
:102540002B602B68094AD05C01332B603B68013358
:102550003B6005B0F0BD01204042FAE724010020B5
:10256000700100200C0000201C01002078010020D8
:1025700074010020F7B5002426000190019B9E42C3
:1025800016DA0C4D0C4F2B68002B06D1FFF7A8FF75
:102590003860431C0DD080232B602A683B686400A0
:1025A0001340591E8B415210E4182A600136E5E7AA
:1025B0002000FEBDBC010020B8010020F7B50024BA
:1025C00020221E4D1E4B2A5501349C42FBD1012076
:1025D000FFF7D0FF431C30D000280CD00820FFF7B5
:1025E000C9FF0600431C28D0FFF76AFF631C2E5565
:1025F0005C05640DEBE70B20FFF7BCFF0600431CF6
:102600001BD00420FFF7B6FF03000190013314D064
:102610003700019BBA1B01339342D8DB7B055B0D6E
:10262000EB5C013718000093FFF74AFF6A46127807
:10263000631C2A555C05640DEBE7F7BDC001002063
:10264000EF07000007B50021034800910B000A00C6
:1026500000F0A2FF07BDC0461401002010B500F035
:1026600023FA10BD10B500F0F7F910BD07B5002131
:1026700004480B000A00009100F08EFF024B034A51
:102680001A6007BDC4110020C011002050C3000013
:1026900007B50021034800910B000A0000F07CFF01
:1026A00007BDC046CC11002007B5002103480091AA
:1026B0000B000A0000F070FF07BDC046D4110020D7
:1026C00007B50021034800910B000A0000F064FFE9
:1026D00007BDC046DC11002030B585B00C000500F8
:1026E00002F03AFA04210023019103A9C2B2009139
:1026F00063202900039300F0FFF903982060C04392
:10270000C00F05B030BD10B504000023A160080063
:10271000211D23606360FFF7DFFF200010BD000074
:1027200007B50021034800910B000A0000F034FFB8
:1027300007BDC046E411002007B500210348009101
:102740000B000A0000F028FF07BDC046EC11002076
:1027500010B504007822002102F01FF9200010BDFE
:1027600010B50C244C4304192068002805D002F051
:1027700001F9002363602360A36010BD70B50500FC
:102780000024210028000134FFF7EAFF0A2CF8D1C9
:10279000280070BD10B5054C2000FFF7D9FF044A92
:1027A0000449200002F016F810BDC046F4110020C4
:1027B000000000207D270000F8B51823234E244F89
:1027C0003370244C04333B70013B237000F04AFB10
:1027D000214D1A2804D801232B702378DB43237062
:1027E0001E4800F0ADFA3078012100F0C3FD3878C2
:1027F000002100F0BFFD2078012100F0BBFD012188
:102800001A2000F0B7FD01211A2000F0FFFD3078FA
:10281000012100F0FBFD2978207800F0F7FD0A2067
:1028200000F00CFC297801252078694000F0EEFDCD
:102830000B4800F003FC00211A2000F0E7FD002106
:102840001A2000F097FD074B1D70F8BD1200002004
:1028500010000020110000206C120020B81600208B
:10286000EE0200006D12002013B500246B465C716F
:102870001C71019A0B490C4800F08AFA0B4B21009D
:10288000187800F0C3FD00F0A3FB0400084B187893
:1028900000F0E8FD012804D000F09AFB001B04289A
:1028A000F4D913BD00127A00B816002012000020DF
:1028B0001000002010B5044B0121187800F0A6FD8F
:1028C000024800F081FA10BD12000020B816002066
:1028D00007B56B46D871D9790248C9B200F088FAB9
:1028E0000EBDC046B816002010B5034B187800F096
:1028F000B9FD0028F9D110BD1000002010B504006A
:10290000FF20FFF7E5FF207010BD70B50C0005003B
:102910000800FFF7F3FF2078401B4342584170BD89
:1029200013B56B46DC1D002320002370FFF7E6FF84
:10293000207816BD70B50500084CFFF7F1FFEF28B1
:1029400008D0013C002C01D0A842F6D1401B4342E4
:10295000584170BD01204042FBE7C046E90300003A
:1029600070B504000D0000201600FFF7B1FF6519D7
:10297000AC4204D02078FFF7ABFF0134F8E7012E1A
:1029800002D1EE20FFF7A4FF70BDF8B505000800E6
:102990000E0017002C00FFF79BFF631B9E4204DD17
:1029A0002078FFF795FF0134F7E7012F02D1EE20E1
:1029B000FFF78EFFF8BD10B50400FF20FFF788FF7A
:1029C000002C00D0207010BDF0B585B01F0002AB08
:1029D000DC1D00230500E020019116002370FFF7A5
:1029E000A9FF002802D1002005B0F0BD2000FFF7AC
:1029F00085FF802223781543AB42F4D12000FFF7F6
:102A00007DFF2378019A9342EDD13800FFF7D3FF81
:102A100035003A78AB1B9A4204DD2800FFF76EFFC1
:102A20000135F6E72100EE20FFF76FFF0120DBE71D
:102A300070B50400E0200D00FFF74AFF7F20204022
:102A4000FFF746FF2800FFF743FF002D02D1EE20DD
:102A5000FFF73EFF70BD0000124B13B51B78002B33
:102A600001D1FFF7A9FEFFF73FFFFFF7FDFE0021B1
:102A70002020FFF7DDFFFFF71DFFFFF735FFFFF712
:102A8000F3FE6B469C1DFF2323706B460022073329
:102A90001A70012122002020FFF796FFFFF70AFF9E
:102AA000207816BD6D120020114B13B51B78002B3A
:102AB00001D1FFF781FEFFF717FFFFF7D5FE0021D9
:102AC0003720FFF7B5FFFFF7F5FEFFF70DFFFFF724
:102AD000CBFE6B460022074C07331A7001212200FF
:102AE0003720FFF771FFFFF7E5FE200016BDC04657
:102AF0006D12002078120020F0B585B00193294BAB
:102B000006001B7800911400002B01D1FFF754FE42
:102B10003500603D6F426F410337FFF7E5FEFFF779
:102B2000A3FE39003000FFF783FF0022042101A833
:102B3000FFF72BFF002204210BA8FFF726FF6A1ED8
:102B400095412100EAB20098FFF71FFF602E04D1E3
:102B500001220B990A98FFF703FF0C34E4190327AD
:102B600025003D4003D0FFF7DBFE0134F8E7FFF717
:102B7000A1FE0F24FFF7B8FEFFF776FE0E236C448C
:102B80006B441D702570602E00D10A9323000A9AB1
:102B900001213000FFF718FFFFF78CFE00202056C0
:102BA00005B0F0BD6D12002007B50021034800916B
:102BB0000B000A0000F0F0FC07BDC04670120020B8
:102BC00010B5054A0549064800F010F80022054BEB
:102BD00005491A705A5410BD01040000005100004C
:102BE000841600207E1200200204000030B5094D3A
:102BF000094CAB685B035B0F9B001C590460AB681E
:102C000001619BB243606343A4008360C46042617E
:102C100030BDC0460040004100560000F7B5802698
:102C20001A4D01916F6803333E439B086E60002B81
:102C30002BD0174E2E802E7DF107FCD51E00076885
:102C4000991BBF088F4219D9002E17D0FF21177882
:102C50008C433C430F4957780C403F023C439778E4
:102C6000013E39040C4F2740D478BFB20F432406ED
:102C700001993C4310C101910432E0E7074B2B80DE
:102C80002B7DDB07FCD53300D1E7F7BD00400041C9
:102C900044A5FFFFFF00FFFFFFFF00FF04A5FFFFAC
:102CA000044B054A4908D9611A801A7DD207FCD520
:102CB0007047C0460040004102A5FFFF70B5040008
:102CC0000D001600E36829002000B34205D2FFF78B
:102CD000E7FFE368ED18F61AF4E7FFF7E1FF70BDD0
:102CE000037D002B04D14375837583610133037524
:102CF00070477FB5C36802AD04000E0002916A60A0
:102D00008B4203D1028AAB889A4218D02000062257
:102D100029000C3001F038FE206800F0B4FD6B791A
:102D2000227AE17900932068002300F04DFE2068AC
:102D30002979320000F078FD206800F09AFD7FBD0F
:102D400070B518260400FFF7CBFF33000821207967
:102D50000D4D4343EB18595600F09CFB33000821FE
:102D6000A0794343EB18595600F094FB0821607991
:102D70004643AD19695600F08DFB044B200006CB8D
:102D8000FFF7B7FF70BDC04620560000D4160020E4
:102D900007B5437D00910192002B07D09A070AD511
:102DA000EFF310835A425341837572B60099019A2A
:102DB000FFF79FFF07BDDB07F8D58369014A9BB288
:102DC0009360F3E700180040437D002B05D09A077D
:102DD00004D5837D002B00D062B67047DB07FCD59D
:102DE0008369024A9BB2D360F7E7C04600180040EF
:102DF00010B5006800F050FD10BD0000114A124BE4
:102E000012491360002353711371114A1160114963
:102E1000D36091800D2191710A3953741374137525
:102E2000D37111720C4AD3605374137413750B4B26
:102E3000D17113600A4B938019239371183B13725D
:102E40007047C046D416002000093D00941D0020A4
:102E50009C1600200C0B0000B8160020981D0020C6
:102E6000171600002120704710B5024801F037FB0B
:102E700010BDC046DC16002010B5024801F02FFB43
:102E800010BDC0461819002010B5024801F027FBFC
:102E900010BDC046541B0020F0B51F4985B01F4827
:102EA00000F038FC1E491F4800F034FC1E4D1F493D
:102EB000280000F02FFC1E4E1E49300000F02AFCB6
:102EC0001D491E4800F026FC1D4F1E49380000F029
:102ED00021FC0124032339000093019423000022E4
:102EE000194801F091FA00233100019300941D3339
:102EF0001E22164801F088FA19230393013B02931E
:102F0000163B01930094143317222900104801F056
:102F100037FA05B0F0BDC04600080042901D002001
:102F2000000C0042941D0020981D0020001000425B
:102F30009C1D00200014004200180042A01D00202B
:102F4000A41D0020001C0042DC16002018190020DF
:102F5000541B0020FEE70000034B10B51B68002B3C
:102F600000D0984710BDC046A81D002070B50F497D
:102F70000F4CA14204D100F089F8FFF731F9FEE7C8
:102F80000C4D00238D42F6D0CA18E818A24205D392
:102F9000094B8242EFD00949002204E00068043363
:102FA0001060F1E704C38B42FCD3E4E7000000208B
:102FB000D4000020345A0000D4000020DC2300207C
:102FC00010B500F060F8002801D100F051F810BDF4
:102FD000014B18687047C046AC1D0020F7B5134878
:102FE000012284461249134C8E68636805689B0E63
:102FF0001340019288686268019F920E3A406746CA
:103000003F6893420ED1BD420CD186420AD35B1970
:10301000FA254868AD00861B07486B437043000DD6
:10302000C018FEBD3D0013000600E3E7AC1D002004
:1030300010E000E000ED00E05555000070B5041E02
:1030400010D0FFF7CBFF050000F01CF8FFF7C6FF1C
:10305000054B401B9842F7D9FA23013C9B00ED1821
:10306000002CF3D170BDC046E7030000704700009C
:1030700010B5034A13680133136000F00FFB10BD55
:10308000AC1D002070470020704700001E22F0B5E4
:10309000504851494368514D93431A00022313434A
:1030A000436008238A691343FE228B612B68D20395
:1030B0009B0213404A4A13434A4A93611300042275
:1030C000DC681442FCD00124474A1470167826426A
:1030D00003D0567876B2002EF8DB01249460547841
:1030E00064B2002CFBDB414C5460547864B2002C79
:1030F000FBDB8224E4015480547864B2002CFBDBB7
:1031000002249C840E34DE682642FCD0384CDC62FB
:103110001024DE682642FCD02C68A40E3F2C00D17F
:10312000203C9E6A334FA4023E4034439C629C6A1A
:10313000314EA40AA40234439C62304CDC62002469
:103140009C841034DE682642FCD02D4C9C841024D4
:10315000DE682642FCD002249E8C34439C841024DA
:10316000DE682642FCD000249460547864B2002CBF
:10317000FBDB244C5460547864B2002CFBDB1C6AEB
:10318000214E344080261C621C6AB4431C62032317
:1031900093601E4B536053785BB2002BFBDB002324
:1031A000FF240B721A4A4B728B72CB72194B1A6046
:1031B000194A2B6811689A065B01C90E2340520F09
:1031C00012020B431343154A1385802342681343AD
:1031D0004360F0BD004000410004004024608000D6
:1031E0000606000000080040000C00400104010039
:1031F000B905FF7DFF03FFFFFF01000080BB0A1C34
:103200002405000000070300FFFCFFFF0306010088
:10321000006CDC02140000202060800000400042AE
:10322000FA21314B10B51868890001F0E5FA2F4BEF
:103230000138984256D82E492E4A4860C020136A59
:1032400000061B021B0A03431362002407238C6041
:103250000B608021136A09061B021B0A0B431362D1
:10326000FC22254B196A0A431A62FC22196A920150
:103270000A431A62A022196AD2020A431A62200083
:103280000021013400F076F81F2CF8D11B4B1C00F4
:103290005A7852B2002AFBDB194A5A80194B1A009D
:1032A000597EC9090129FBD0E421C90099803F2139
:1032B000D970537EDB09012BFBD0C02300205B01BA
:1032C0001361907000F024F863785BB2002BFBDB95
:1032D0000D4B0E4A6380D379DB09012BFBD04123D0
:1032E000537010BDFEE7C04614000020FFFFFF0032
:1032F00010E000E000ED00E000040040000C0040A1
:103300001E400000004000422140000000480042F2
:10331000164A00B51300517EC9090129FBD00138B6
:10332000042816D81969124A0A400F211A615A78DE
:103330008A4301F057FA0308060B0300110001222B
:103340000A435A7000BD11000322F9E7110002225E
:10335000F6E7F02311691B050B430F211361537826
:103360008B43190002230B435370EBE700400042EC
:10337000FFFFFFF0182330B51D000400454308206F
:10338000204A55192856013014D0032912D80800B4
:103390006343D156D31801F025FA02280E1B586852
:1033A000CB010221184A9B181A18403211700122D1
:1033B00082405A6030BD5868CB010621124A9B18E2
:1033C0001A1840321170012282405A609A61F1E766
:1033D0005868CB0106210C4A9B181A18403211700C
:1033E000012282405A605A61E4E75868CB01022109
:1033F000054A9B181A1840321170012282409A60C7
:10340000D8E7C04620560000004400411823F0B51C
:1034100008245843114A13181C5701341BD00126A5
:1034200035005F688356BD400D4ADB019A189068ED
:1034300005420BD10C00601E8441D2194032107835
:1034400034400336A400B04320431070044A9B1854
:10345000002901D15D61F0BD9D61FCE720560000AF
:1034600000440041182310B50824434307490020B5
:10347000CA181457013408D05B560549DB015B18A4
:10348000186A5368D8400123184010BD2056000028
:103490000044004118224243F8B52C4E0300B218F4
:1034A000127A52B2140001320ED0481C00240C28AB
:1034B0000AD801F097F9071F1F1F1F1F1F1F1F0B9F
:1034C0000B0B0B00012464422000F8BD092905D133
:1034D00000211800FFF74EFF0024F5E70A2901D16B
:1034E0000839F6E700240B29EED10A391800FFF756
:1034F00041FFE9E718225343F218556801202C00D8
:10350000F356134ADB016E089B18C9B204409E199A
:10351000002C0DD00F24303632780901224011439F
:10352000C9B25B19317040331A7810431870D3E771
:1035300032000F27303216785B19BE4331431170C9
:1035400040331A7810431870BEE7C046205600007A
:1035500000440041F7B5C31D0193002306000D0090
:10356000041D009321780A22280000F081F82E2102
:103570000700280000F047F8009B3F18DB19009374
:10358000019B01349C42EDD1F17928000A2200F020
:103590006FF8009B1818FEBD30B503AC2578044CBD
:1035A000C5710834046001714271837130BDC04639
:1035B00038590000F7B506000D000C008B18019378
:1035C000019B671B9C4207D0336821781B68300041
:1035D000984701340028F3D13800FEBD70B50400CF
:1035E00008000D0001F0B8FA2368020029005B68AA
:1035F0002000984770BD10B50B1E02D0FFF7EEFFFC
:103600000300180010BD10B503681B68984710BD73
:10361000F0B58BB06B461500002205330600DA7753
:103620000800012D00D80A2509AC290001F06AF92B
:10363000CAB2130037330700DBB2092902D81300DE
:103640003033DBB2013C2370002FEED1210030007B
:10365000FFF7D1FF0BB0F0BD10B5002A04D103680D
:10366000C9B21B68984710BDD2B2FFF7D1FFFAE785
:1036700010B5FFF7F1FF10BD10B50400FFF7F6FC21
:10368000014B1C6010BDC046180000200122024BF7
:1036900052421A607047C04618000020164A10B502
:1036A0001368591C26D0013B1360002B22D172B63F
:1036B000124B134A0433934213D9124A01211000CA
:1036C000147D0C42FCD02021148BFF319B085B0041
:1036D00021431183D3610C4B13800123027D1A42D5
:1036E000FCD0BFF34F8F094B094ADA60BFF34F8F0D
:1036F000C046FDE710BDC0461800002000200000B5
:10370000030200000040004102A5FFFF00ED00E0C1
:103710000400FA05016070479446F0B59E1E721EC3
:1037200096416246056892072F6836063A4332434F
:103730002A60072505AC24780068A40129402143AC
:1037400042680024022B00D05C03114321434160F6
:10375000F0BD30B5C0250368AD031C6812052A40D2
:103760002243C0240904A4022140114319600368C4
:103770005A6814435C6030BD0123026811680B4332
:10378000136003681A68D207FCD4DA69D207F9D447
:1037900070470223026811680B4313600268D36903
:1037A0009B07FCD4704703681A7ED20702D41A7EA6
:1037B0009207FCD57047002203685A83704703685C
:1037C000187E4007C00F70470368187EC009704715
:1037D000802302685B42117E0B43137670470368B7
:1037E000588B8007C00F704702230268518B0B4330
:1037F000538370470368187EC007C00F7047036883
:10380000188DC0B2704703681A7ED207FCD589B202
:10381000012019857047012203689A7570470122BB
:1038200003681A757047000070B5012604684B08DC
:1038300033403140256809075B070B432B43236066
:1038400004685100034800F0D7FF0138C0B220736C
:1038500070BDC046006CDC020123026811680B4396
:10386000136003681A68D207FCD4DA69D207F9D466
:1038700070470223026811680B4313600268D36922
:103880009B07FCD470470368DA699207FCD40221D5
:103890001A688A431A6070470268936A5B0A5B027F
:1038A0001943916203681A7E5207FCD5986AC0B228
:1038B000704700000368214A30B593422FD0204A58
:1038C00093422FD01F4A93422FD01F4A93422FD0AA
:1038D0001E4A93422FD01E4A93421FD10E23192213
:1038E0000121032599401B48C024016099082B4001
:1038F000AB40FC359D4089000918A4000859A84335
:10390000C0259D402B0003430B518023DB011A434C
:10391000114B5A805A7852B2002AFBDB30BD092382
:103920001422DDE70A231522DAE70B231622D7E754
:103930000C231722D4E70D231822D1E700080042F8
:10394000000C004200100042001400420018004227
:10395000001C004200E100E0000C0040F8B504004B
:103960000F0016001D00FFF7A5FF2000FFF704FF62
:103970001C21BB000B4071072268090C0B4313602C
:10398000842322689375012F1AD11021012E00D0B3
:1039900008390C4B69431868C00000F02DFF07225E
:1039A000216802408B895203DB04DB0C13438B81BB
:1039B000226803049089DB0C400B4003184390817C
:1039C000F8BDC04614000020F7B50600019308AB0F
:1039D0001F780D001400FFF73FFF3000FFF76AFF6C
:1039E000C022240592031440BA070C2717433C4316
:1039F000C0270722BF022D0433683D4025431D60C8
:103A0000019B316813401A0080239B0213434B60D3
:103A1000F7BD0020704770B50F26CB1D013902009D
:103A20003240D5B22C0000093034092A00DD0734B9
:103A30001C70013B8B42F2D170BD000010B50C0030
:103A40000B4B1868FFF7E7FF21000A4B0831186895
:103A5000FFF7E1FF2100084B10311868FFF7DBFF8B
:103A60002100064B18311868FFF7D5FF202010BD44
:103A70000CA0800040A0800044A0800048A08000EE
:103A800008B4024B9C46103808BC60473D3A000021
:103A900070473F20704713B56B460268D9710733F2
:103AA000546819000122A04716BD000070B50A260F
:103AB0000B7892B06E44023305000B703C2200215B
:103AC000300000F06AFF394801AC069038482421E4
:103AD0000790062020776846364AA1742281364A2C
:103AE000364BA281FD3AFF3A8018C17768462339E8
:103AF0000630C17768460730C17702A8C177072032
:103B0000F277032608316944C87703A9CE771021DC
:103B10002B366E443170092621851F3169440E70A1
:103B20000CA9053E0E7033212380022369440B70DB
:103B300006360DA90E7022493536A1863B216E440A
:103B4000307010A86274E27702703D3269446A44B2
:103B50000B70137040210022E37023716371A37313
:103B600041336B44218719705A702B7DC039A37083
:103B7000A37263770133DBB2A3776A7D0B200D005C
:103B800068441543C5773120684403703A23501CBC
:103B90006B441870412302320A436B441A702100AF
:103BA0004222084800F0D8FA12B070BD1001042477
:103BB000020605240904000001020000080B0000B1
:103BC00007050000181E002008B4024B9C46103860
:103BD00008BC6047AD3A000070B5027D0B790C005F
:103BE00000259A420BD10B784E78A12B09D1212EBA
:103BF00005D107221F49204800F0AEFA0135280000
:103C000070BD212BFBD1202E2BD1072219491A4838
:103C100000F0E4F9174B1A785978090211439A78A1
:103C200012041143DA7812060A439621C9008A4227
:103C30001DD1DB79DB071AD4FA20FFF71DFD002127
:103C40000D4800F0B3FA0125232ED8D1E378A278ED
:103C50001B021343094A00210748136000F0A6FA2B
:103C6000CDE7222EEFD18A78024BDA71D2E7FFF747
:103C70000DFDE4E720000020181E00201C0000209D
:103C800008B4024B9C46103808BC6047D93B000082
:103C900010B5417D006A013100F0D8F8034B1B6874
:103CA00001335A1E9341181810BDC0462800002049
:103CB00010B5417D006A023100F0DEF810BD10B58C
:103CC000417D006A023100F0A5F810BD70B50D000D
:103CD000417D0400130002312A00006A00F092F9CD
:103CE000002801D10123636070BD000010B5054CB0
:103CF00023685A1C04D103685B699847030020605D
:103D0000180010BD28000020074A0300106810B5F5
:103D1000411C03D001235B42136010BD597D186A1A
:103D2000013100F01FF9F8E728000020704700205B
:103D300070470000FA239B0010B583600F4B0022F0
:103D4000C3820300283383610D4B04004260C261CB
:103D50001800443323610830631D21622060DA7744
:103D60008323A362813BE3628033236300F040F846
:103D70002100103100F010F8200010BD03020000F7
:103D80004459000010B502490248FFF7D3FF10BDA7
:103D9000181E0020B01D0020F0B58C794578030076
:103DA0002A190020072A1FDC5A68824216D159605E
:103DB0001A78C8790A7112184D711A7000220B4DC9
:103DC000D0B284420FD98F6858789600F759860090
:103DD0000130775101325870F2E70200D0680028B4
:103DE000FBD1D160E4E70120F0BDC046F01D00200A
:103DF0000121064A10B5136805480B4004D1802400
:103E0000640004804360116010BDC046E41D0020C2
:103E1000E81D00200B4BCAB20B488901C918530199
:103E2000C318596199690832890B8903996103683C
:103E300052019A180223D3715179823B0B4353717B
:103E40007047C046401E0020C8220020084B8A0050
:103E5000D05810B5002803D003689B68984710BD60
:103E6000C9B2044B4901591888688004800CF6E7F0
:103E70001C1E0020C822002010B50C00FFF7E6FF32
:103E800000280CD0064BE4B21B68083464011C19EE
:103E9000802362795B42134363710223E37110BD97
:103EA000C8220020F0B51C002A4B85B01B68070013
:103EB0000D000292002B4AD0274B8A00D0580028D0
:103EC00008D0036822005B6802999847040020002C
:103ED00005B0F0BD3800FFF7B9FF844204D92900CE
:103EE0003800FFF7B3FF04000121EBB21B4E039330
:103EF0005B010193F21893689B0B9B039360019AFB
:103F0000336802989B18FF335A7A0A435A72144B4B
:103F1000A901C918220000F037FD002CD7D02900D4
:103F20003800FFF793FF0028D1D14021039B32686E
:103F300008335B01D3181879014319710121D97134
:103F4000019BD318FF339A7A0A439A72BFE7012480
:103F50006442BCE7C42200201C1E0020C8220020AE
:103F60000020002013B56B46DC1D22000123FFF763
:103F700099FF012801D1207816BD01204042FBE7BE
:103F800070B5CBB2124A13485C0189018918021935
:103F900051609168104D08330D4080214903294339
:103FA000402591609168890B8903916001685A01ED
:103FB0008A1816793543157195796D06FCD55B0124
:103FC000C918CB79DB07FCD500198068C0B270BD79
:103FD00000200020C8220020FF3F00F070B50D0037
:103FE00000211400FFF7CCFFA04200D920000023DD
:103FF0000349A34203D0CA5CEA540133F9E770BD18
:1040000000200020F0B51E003A4B85B01B680F0061
:104010000192002B35D08023DB019E4231D8002550
:10402000354B8A01D3180293002E2CD0334B1B68DA
:104030000393FF233B401C0000930834039B64015F
:104040001C19A379DB0921D02D4B2E49186800F0EB
:10405000D3FB2D4B1721584300F0CEFB2B4BE279BD
:10406000920713D4DA5D002A01D10138F7D2012278
:10407000DA55009B5A01214B9B189A69920B9203C7
:104080009A6101256D42280005B0F0BD00221F4B4A
:104090003400DA553F2E09D9009B40245A01174BB2
:1040A0009B188022996912060A439A61220001999D
:1040B000029800F069FC009BA1045A010F4B890C87
:1040C0009B18029A2D195A619A69361B920B92031A
:1040D0000A439A61009B039A08335B01D3180222BA
:1040E000DA715979823A0A435A71019B1B1901937B
:1040F0009AE7C046C4220020401E0020C8220020AB
:104100001400002040420F0070110100381E0020F2
:1041100070B50D001C000D4BAE01F61811003000FB
:10412000220000F031FCEDB209496D014D196E61BC
:10413000AB69084A20001340AB61AB69A2049B0B3A
:10414000920C9B031343AB6170BDC046401E002020
:10415000C8220020FF3F00F0F7B5104B01901B78FC
:104160000F001500002B0CD10D4B16001C78002CF5
:1041700009D00C4E0C4834882018641900F004FC57
:1041800034802800FEBD002EFBD03A1933000021F8
:104190000198FFF7BDFF2418361AF4E7C02100206C
:1041A000C1220020C2220020C1210020CBB204493C
:1041B0005B01C9188B699B0B9B038B617047C046E1
:1041C000C8220020014B024A1A607047C822002012
:1041D000005000410120704710B50368014A1B6A76
:1041E000984710BD130400000300FC33D9699A6995
:1041F000914203D0DB69C018007D70470120404226
:10420000FBE710B504000069FFF7B6FA22000023AF
:10421000FC329361D36186229200A4186360A3608C
:1042200010BDF02001403039484248417047F0232A
:104230001B011940802306209B0099420AD00133BC
:10424000FF330130994205D0802302385B00994248
:1042500000D0002070470F2001400020012903D02A
:104260000239481E8141481C704700008923F0B57F
:10427000182685B002919B000400C05C3300082121
:104280004343324D1700EB185956FFF703F9304BF3
:104290000821E05C33004343EB185956FFF7FAF866
:1042A0002C4BE25C0393022A09D11133E05CFF2816
:1042B00005D008214643AE197156FFF7EBF88A2660
:1042C000B600A05DFF2819D00121FFF753F818228E
:1042D000A35D21495A43AB56AD18DB0158188B2119
:1042E000890060501D4901225B188C2189006350B0
:1042F00069688A408D21890062501A600122029B00
:1043000011002069FFF72AFB39002000FFF78FFF1B
:10431000390005002000FFF79EFF3900060020004D
:10432000FFF77FFF33000090290020690122FFF78B
:10433000F3F90B4B2069E25C039BE15CFFF709FAA0
:104340002069FFF726FA05B0F0BDC04620560000F0
:1043500025020000270200001844004114440041D7
:1043600026020000802210B504005200002100F057
:1043700014FB23000022FC335A6020009A6010BD19
:10438000F0B585B01D000AAB1B78040000930BABA1
:104390001B78160001930CAB1B780F0002930DAB3A
:1043A0001B78039300234360FA239B008360124B26
:1043B000083303601430FFF7D5FF20001D30FF30B5
:1043C000FFF7D0FF89236A469B002761E6540B4B19
:1043D0001278E5540A4B2000E2546A46094B1279E0
:1043E000E2546A46127A0133E2546A46127B103371
:1043F000E25405B0F0BDC0469C5900002502000003
:104400002602000027020000F7B51D0008AB1B784C
:104410000400009309AB1B7816000193002343604E
:10442000FA239B008360114B0F00083303601430A4
:10443000FFF798FF20001D30FF30FFF793FF89231F
:104440006A469B002761E654094B1278E554094BF4
:104450002000E2546A46084B1279E2548A22293B32
:10446000FF3B9200A3541032A354FEBD9C590000A0
:104470002502000026020000270200000300FC3392
:1044800058689B68C01A01D50130FF30704710B5DD
:10449000040020001D30FF30FFF7F0FF0028F8D1A6
:1044A0002069FFF780F910BD10B51430FFF7E6FF63
:1044B00010BD0300FC3359689A68914204DB5A68C6
:1044C0009868801AFF30704798685B68C01A013896
:1044D000F9E710B51D30FF30FFF7EBFF10BD10B549
:1044E00004000069FFF77BF9002805D02069FFF779
:1044F00086F92069FFF778F92069FFF760F900284D
:1045000020D02069FFF77BF92200FC329369D16942
:104510000133DBB28B4203D0916961180875936156
:104520008A239B00E35CFF2B0CD020001430FFF7A4
:10453000C0FF092806DC8B238D229B009200E358E4
:10454000A2581A602069FFF755F900281AD02000F8
:104550001D30FF30FFF792FF002822D086239B00FA
:10456000E31899685A68914218D08E219A684900D8
:10457000A218515C9A680132D2B29A60C9B220691D
:10458000FFF741F92069FFF71FF9002805D02069DE
:10459000FFF71EF92069FFF70EF910BD012149420E
:1045A000ECE72069FFF73BF9ECE7000070B5040089
:1045B00000690D00FFF71EF900283ED1FF26862373
:1045C0009B00E3185A689968013232408A4223D12D
:1045D000EFF31083DB0710D41E4B5B68DB05DB0DAC
:1045E000EDD0103B5BB2002B10DA0F221340083BDA
:1045F0009B08194A9B009B181B682069FFF7FAF873
:104600000028DCD02000FFF76AFFD8E79B08C03302
:10461000124A9B009B58F0E75A68013216409A688C
:10462000964205D08E215A684900A21855545E6002
:104630002069FFF7F0F8012070BD20001D30FF3029
:10464000FFF71CFF0028B9D129002069FFF7DBF82C
:10465000F1E7C04600ED00E01CED00E000E100E005
:10466000030070B5FC33D9699A69040091421AD0ED
:10467000DA698218157DDA690132D2B2DA618A23E9
:104680009B00E35CFF2B0CD020001430FFF711FFE0
:104690000A2806DD8C238D229B009200E358A25845
:1046A0001A60280070BD01256D42E8E710B50400CE
:1046B000006800F05FF9200010BD10B5040000682C
:1046C000002801D000F056F900232360A360636046
:1046D00010BD70B504000D000068013100F00EFA45
:1046E000031E01D0012028C470BD036810B504006A
:1046F000002B04D043688B4201D3012010BD200061
:10470000FFF7E7FF0028F9D0A368002BF5D1226856
:104710001370F2E770B50E00110004001500FFF7EA
:10472000E4FF002804D12000FFF7C7FF200070BD80
:10473000A5603100206800F007FAF7E7002370B5A4
:1047400004000D00036043608360994207D00800B5
:1047500000F002FA290002002000FFF7DBFF200032
:1047600070BD70B5050008000C0000F0F5F92100DF
:1047700002002800FFF7CEFF70BD10B5040000292D
:1047800003D0FFF7EEFF200010BDFFF796FFFAE71A
:10479000026810B50B68002A13D0002B0CD1816879
:1047A0001800002907D0107805E08968100000295A
:1047B00001D01878404210BD1900100000F0BAF97D
:1047C000F9E7002BF1D11800F5E710B5FFF7E0FF8E
:1047D000C00F10BD0B0010B50100180000F098F8D4
:1047E00010BD000002B4714649084900095C490047
:1047F0008E4402BC7047C046002243088B4274D3EB
:1048000003098B425FD3030A8B4244D3030B8B42D1
:1048100028D3030C8B420DD3FF22090212BA030CDA
:104820008B4202D31212090265D0030B8B4219D3BB
:1048300000E0090AC30B8B4201D3CB03C01A5241DB
:10484000830B8B4201D38B03C01A5241430B8B4223
:1048500001D34B03C01A5241030B8B4201D30B030C
:10486000C01A5241C30A8B4201D3CB02C01A524133
:10487000830A8B4201D38B02C01A5241430A8B42F6
:1048800001D34B02C01A5241030A8B4201D30B02DF
:10489000C01A5241CDD2C3098B4201D3CB01C01AF9
:1048A000524183098B4201D38B01C01A5241430903
:1048B0008B4201D34B01C01A524103098B4201D3F1
:1048C0000B01C01A5241C3088B4201D3CB00C01A5E
:1048D000524183088B4201D38B00C01A52414308D6
:1048E0008B4201D34B00C01A5241411A00D20146FB
:1048F000524110467047FFE701B5002000F006F86E
:1049000002BDC0460029F7D076E770477047C04621
:1049100010B5040004481300002804D00A00022047
:10492000210000E000BF10BD0000000070B50026AF
:104930000C4D0D4C641BA410A64209D1002600F0BA
:1049400051F90A4D0A4C641BA410A64205D170BD52
:10495000B300EB5898470136EEE7B300EB589847A1
:104960000136F2E790000020900000209000002027
:10497000D000002010B5034B0100186800F016F8B5
:1049800010BDC0462C000020002310B59A4200D173
:1049900010BDCC5CC4540133F8E7030012189342F5
:1049A00000D1704719700133F9E7000070B50500B8
:1049B000002910D00C1F2368002B00DAE41828000F
:1049C00000F0D1F81D4A1368002B05D16360146014
:1049D000280000F0C9F870BDA34209D92168601809
:1049E0008342F3D118685B6841182160EEE7130039
:1049F0005A68002A01D0A242F9D919685818A04271
:104A00000BD120680918581819608242E0D110684B
:104A10005268411819605A60DAE7A04202D90C23A3
:104A20002B60D5E721686018824203D11068526874
:104A30004118216062605C60CAE7C046CC23002058
:104A4000032370B5CD1C9D43083506000C2D1ED2E6
:104A50000C25A9421DD8300000F085F8254A1468BD
:104A60002100002919D1244C2368002B03D13000E8
:104A700000F04EF820602900300000F049F8431C97
:104A80002BD10C233000336000F06EF803E0002DD2
:104A9000DFDA0C233360002070BD0B685B1B19D478
:104AA0000B2B03D90B60CC18256003E04B688C42BC
:104AB0000DD11360300000F057F8200007220B30B2
:104AC000231D9043C31AE7D05A42E250E4E76360E3
:104AD0000C00EFE70C004968C3E70323C41C9C43A8
:104AE000A042E1D0211A300000F012F8431CDBD1C3
:104AF000C7E7C046CC230020D023002010B5034BCD
:104B00000A000100186800F030F810BD2C000020E9
:104B1000002370B5064C05000800236000F054F82F
:104B2000431C03D12368002B00D02B6070BDC0460E
:104B3000D823002002780B78002A03D001300131FD
:104B40009A42F7D0D01A704703000A7801311A70E0
:104B50000133002AF9D170470023C25C0133002AD7
:104B6000FBD1581E704770477047F8B507000D001D
:104B70001600002905D11100FFF762FF0400200094
:104B8000F8BD002A03D1FFF711FF3400F7E700F06A
:104B900012F82C00B042F2D231003800FFF750FF7B
:104BA000041EECD029003200FFF7EEFE2900380089
:104BB000FFF7FCFEE3E70B1F1B68181F002B01DA51
:104BC0000B58C01870470000044A1368002B00D12E
:104BD000034B1818106018007047C046D4230020FB
:104BE000DC230020F8B5C046F8BC08BC9E467047E0
:104BF000F8B5C046F8BC08BC9E46704700000000EF
:104C0000963007772C610EEEBA51099919C46D07D9
:104C10008FF46A7035A563E9A395649E3288DB0E34
:104C2000A4B8DC791EE9D5E088D9D2972B4CB60917
:104C3000BD7CB17E072DB8E7911DBF906410B71DF4
:104C4000F220B06A4871B9F3DE41BE847DD4DA1A2D
:104C5000EBE4DD6D51B5D4F4C785D38356986C135E
:104C6000C0A86B647AF962FDECC9658A4F5C0114D7
:104C7000D96C0663633D0FFAF50D088DC8206E3BB5
:104C80005E10694CE44160D5727167A2D1E4033CC7
:104C900047D4044BFD850DD26BB50AA5FAA8B535EE
:104CA0006C98B242D6C9BBDB40F9BCACE36CD832DD
:104CB000755CDF45CF0DD6DC593DD1ABAC30D92684
:104CC0003A00DE518051D7C81661D0BFB5F4B42187
:104CD00023C4B3569995BACF0FA5BDB89EB8022884
:104CE0000888055FB2D90CC624E90BB1877C6F2F09
:104CF000114C6858AB1D61C13D2D66B69041DC7604
:104D00000671DB01BC20D2982A10D5EF8985B171DC
:104D10001FB5B606A5E4BF9F33D4B8E8A2C907788B
:104D200034F9000F8EA8099618980EE1BB0D6A7F22
:104D30002D3D6D08976C6491015C63E6F4516B6BDB
:104D400062616C1CD83065854E0062F2ED95066C90
:104D50007BA5011BC1F4088257C40FF5C6D9B06505
:104D600050E9B712EAB8BE8B7C88B9FCDF1DDD6262
:104D7000492DDA15F37CD38C654CD4FB5861B24DC8
:104D8000CE51B53A7400BCA3E230BBD441A5DF4A92
:104D9000D795D83D6DC4D1A4FBF4D6D36AE9694355
:104DA000FCD96E34468867ADD0B860DA732D044400
:104DB000E51D03335F4C0AAAC97C0DDD3C7105502B
:104DC000AA41022710100BBE86200CC925B56857D2
:104DD000B3856F2009D466B99FE461CE0EF9DE5E1B
:104DE00098C9D9292298D0B0B4A8D7C7173DB359CC
:104DF000810DB42E3B5CBDB7AD6CBAC02083B8ED5D
:104E0000B6B3BF9A0CE2B6039AD2B1743947D5EA69
:104E1000AF77D29D1526DB048316DC73120B63E398
:104E2000843B64943E6A6D0DA85A6A7A0BCF0EE4F7
:104E30009DFF099327AE000AB19E077D44930FF0B2
:104E4000D2A3088768F2011EFEC206695D5762F7A9
:104E5000CB67658071366C19E7066B6E761BD4FEE6
:104E6000E02BD3895A7ADA10CC4ADD676FDFB9F9C3
:104E7000F9EFBE8E43BEB717D58EB060E8A3D6D685
:104E80007E93D1A1C4C2D83852F2DF4FF167BBD1B3
:104E90006757BCA6DD06B53F4B36B248DA2B0DD8B6
:104EA0004C1B0AAFF64A0336607A0441C3EF60DF59
:104EB00055DF67A8EF8E6E3179BE69468CB361CB42
:104EC0001A8366BCA0D26F2536E2685295770CCC67
:104ED00003470BBBB91602222F260555BE3BBAC5A8
:104EE000280BBDB2925AB42B046AB35CA7FFD7C299
:104EF00031CFD0B58B9ED92C1DAEDE5BB0C2649B8A
:104F000026F263EC9CA36A750A936D02A906099CBC
:104F10003F360EEB8567077213570005824ABF952F
:104F2000147AB8E2AE2BB17B381BB60C9B8ED292B2
:104F30000DBED5E5B7EFDC7C21DFDB0BD4D2D38609
:104F400042E2D4F1F8B3DD686E83DA1FCD16BE817C
:104F50005B26B9F6E177B06F7747B718E65A08884D
:104F6000706A0FFFCA3B06665C0B0111FF9E658FDE
:104F700069AE62F8D3FF6B6145CF6C1678E20AA088
:104F8000EED20DD75483044EC2B30339612667A70E
:104F9000F71660D04D476949DB776E3E4A6AD1AE5D
:104FA000DC5AD6D9660BDF40F03BD83753AEBCA9EC
:104FB000C59EBBDE7FCFB247E9FFB5301CF2BDBD59
:104FC0008AC2BACA3093B353A6A3B4240536D0BA62
:104FD0009306D7CD2957DE54BF67D9232E7A66B3FF
:104FE000B84A61C4021B685D942B6F2A37BE0BB4AC
:104FF000A18E0CC31BDF055A8DEF022D312E342EEE
:1050000031002F66732F5550444154452E42494E6E
:105010002E4C5A5353002F66732F5550444154451C
:105020002E42494E00000000000000000000000079
:105030000000000000000000000000000000000070
:105040000000000000000000000000000000000060
:105050000000000000000000000000000000000050
:105060000000000000000000000000000000000040
:105600000800000010000000200000004000000022
:105610008000000000010000000200000004000003
:10562000010000001700000003000000040000005B
:10563000FF00FFFFFFFFFF00010000001600000059
:105640000300000004000000FF00FFFFFFFFFF0059
:10565000010000000A000000080000001C0000001B
:10566000FF00000500050A00010000000B0000001B
:10567000080000001C000000FF00010501050B00F0
:105680000000000007000000080000000400000007
:105690000700FFFFFFFFFF00000000000500000003
:1056A000080000001C000000050001000100FF00D0
:1056B0000000000004000000080000001C000000C2
:1056C000040000000000FF000000000006000000D1
:1056D00008000000040000000600FFFFFFFFFF00BD
:1056E000000000001200000008000000040000009C
:1056F000FF00FFFFFFFFFF0000000000140000009C
:10570000080000002C000000FF000200020004005E
:105710000000000015000000080000002C00000040
:10572000FF0003000300050000000000100000005F
:10573000020000001C000000FF0000020002000048
:105740000000000013000000020000001C00000028
:10575000FF0001030103FF00000000001100000032
:105760000200000004000000FF00FFFFFFFF010037
:105770000000000002000000010000000600000020
:105780000000FFFFFFFFFF0001000000020000001B
:1057900001000000040000000A00FFFFFFFF0200FC
:1057A000000000000B000000010000001C000000D1
:1057B000130001010101FF00000000000A000000C9
:1057C000010000001C000000120000010001FF00A9
:1057D00001000000080000000300000006000000B7
:1057E0000200FFFFFFFFFF000100000009000000B2
:1057F0000300000018000000030001040104090078
:10580000000000000900000001000000040000008A
:105810001100FFFFFFFFFF00010000000300000078
:1058200001000000040000000B00FFFFFFFF030069
:10583000000000000C00000002000000000000005A
:10584000FF00FFFFFFFFFF00000000000D00000051
:105850000200000000000000FF00FFFFFFFFFF004C
:10586000000000000E000000080000000000000022
:10587000FF00FFFFFFFFFF00000000000F0000001F
:105880000200000000000000FF00FFFFFFFFFF001C
:10589000000000001B0000000800000000000000E5
:1058A000FF00FFFFFFFF0F000000000008000000E6
:1058B0000800000004000000FF00FFFFFFFFFF00E2
:1058C000000000001C0000000800000004000000B0
:1058D000FF00FFFFFFFFFF000000000016000000B8
:1058E000020000001C000000FF000004000406008D
:1058F0000000000017000000020000001C00000073
:10590000FF0001040104070000000000180000006F
:105910000600000000000000FF00FFFFFFFFFF0087
:105920000000000019000000060000000000000058
:10593000FF00FFFFFFFFFF0000000000000000006D
:10594000553500000000000000000000973A0000FC
:10595000CD3C0000933A0000B13C0000913C0000B7
:10596000093D0000ED3C0000BF3C0000AD3A0000E6
:10597000133A0000D93B00003D3A0000913A000084
:10598000F0FFFFFF00000000813C0000C93B000069
:105990002F3D00002D3D0000813A00000000000076
:1059A00000000000AD450000B5350000D344000004
:1059B0008F440000A944000061460000E941000056
:1059C000D94100006D42000003420000D5410000B3
:1059D00000000000000000000000000000000000C7
:1059E00000000000000000000000000000000000B7
:1059F00000000000000000000000000000000000A7
:105A00000000000000000000000000000000000096
:105A10000000000000000000000000000000000086
:105A20000000000000000000000000000000000076
:105A300000000000000000001650000002500000AE
:105A40004000000007050A0040420F00FFFFFFFF73
:105A5000FFFFFFFF00C2010000000800FFFFFFFF83
:105A60003000002000000000F0590000105A000033
:105A7000D0590000000000000000000000000000FD
:105A80000000000000000000000000000000000016
:105A90000000000000000000000000000000000006
:105AA00000000000000000000000000000000000F6
:105AB00000000000000000000000000000000000E6
:105AC00000000000DD200000252400004526000025
:105AD0006D26000091260000A9260000C1260000C6
:105AE000212700003927000095270000A92B00007E
:105AF000C12B0000FD2D0000992E0000853D000007
:105B0000C5410000B52000000000000000000000BA
:105B10000000000000000000000000000000000085
:105B20000000000000000000000000000000000075
:105B30000000000000000000000000000000000065
:105B40000000000000000000000000000000000055
:1060000000800020E5410100CD410100CD410100AB
:106010000000000000000000000000000000000080
:10602000000000000000000000000000CD41010061
:106030000000000000000000CD41010039420100D5
:10604000CD410100CD410100CD4101002D1E0100D7
:10605000CD410100CD410100CD410100D141010000
:10606000CD410100CD410100CD41010001410100C0
:10607000F140010049400100E1400100CD41010033
:10608000CD410100CD410100CD410100CD410100D4
:1060900000000000CD410100CD410100CD410100D3
:1060A000CD410100CD410100CD410100CD410100B4
:1060B0000000000010B5064C2378002B07D1054BDB
:1060C000002B02D0044800E000BF0123237010BD64
:1060D00000030020000000008C100200044B10B5EB
:1060E000002B03D00349044800E000BF10BDC046A8
:1060F00000000000040300208C10020070B50400B2
:106100000A4D0B4928000EF0D7FB0A22E1B2280005
:106110000EF059FC074B1A68A24205D0012C02D19F
:106120000021054A11801C6070BDC0462C4A002029
:10613000A0D40100E0040020E404002010B50EF01B
:1061400089F804000B480CF0B7FF0028FAD00EF0D5
:1061500081F8094B001B9842F4D9084C08492000EB
:106160000EF0AAFB0A22012120000EF012FC0120F1
:1061700010BDC046A4460020E70300002C4A0020C2
:106180008ED401007FB5060020480DF0EFF8204CBA
:10619000002806D11F4920000EF0AAFB022004B0FF
:1061A00070BD1D4920000EF0A3FB1C4D00210122F3
:1061B00028000DF043FB1A49002817D0194B002E78
:1061C00000D1194B196828000DF032FC290001A8F4
:1061D0000DF046FB154D01A9280010F0B7FC01A8F1
:1061E00010F0DEFB2B68002B05D1114920000EF0CA
:1061F0007FFB0620D3E70A22A96820000EF0EDFB02
:10620000290020000EF06AFB0720C8E7A446002002
:106210002C4A0020B3D40100C6D40100B4460020AB
:10622000E1D40100700500209804002044040020FF
:1062300000D50100F7B500213B480B0000910A0092
:106240000EF0F4FA394D28000AF058FF384C39495D
:106250002200280010F063FD374E384F310038001F
:1062600010F0E8FB364D22002900380010F057FDF1
:10627000344F3100380010F0DDFB220029003800D7
:1062800010F04DFD304F3100380010F0D3FB2200EC
:106290002900380010F043FD2C4F3100380010F079
:1062A000C9FB22002900380010F039FD284F3100C9
:1062B000380010F0BFFB22002900380010F02FFD3D
:1062C000244F3100380010F0B5FB220029003800BF
:1062D00010F025FD204F3100380010F0ABFB2200FC
:1062E0002900380010F01BFD1C4F3100380010F061
:1062F000A1FB22002900380010F011FD184F3100D9
:10630000380010F097FB22002900380010F007FD3C
:10631000144F3100380010F08DFB290038002200A6
:1063200010F0FDFCF7BDC046300400201C03002027
:106330000000002065100100E0E901009804002041
:10634000A169010044040020D4040020C8040020F6
:10635000B0040020BC040020A4040020700500202C
:10636000380400207C05002030B59625AD0185B0AD
:10637000290018480EF0F8FF2900FA25164CED0008
:10638000200010F08BF828000DF09AFF1349200030
:106390000EF0AEFAFFF7D2FE114920000EF0A8FA77
:1063A000FA2080000DF08CFF28000DF089FF01A875
:1063B0000C490CF0A9FF0C4D01A9280010F0C6FBF8
:1063C00001A810F0EDFA290020000EF087FA05B0C0
:1063D00030BDC046005100202C4A0020FDD70100EE
:1063E00015D80100A446002070050020F0B5304EFD
:1063F00085B030000EF026FF092857DD30000EF082
:106400005DFF2C4DC0B22B788342F7D103AC300036
:1064100023700EF053FF6B78C0B28342EED102229C
:1064200029002000637013F065F800283ED1224C4B
:10643000224920000EF05CFA30000EF03FFF204FA2
:10644000386030000EF03AFF050030000EF036FFE5
:10645000E9B2C3B20A22200001930EF0B0FA194942
:1064600020000EF029FA0A22019920000EF0ABFA62
:10647000019B154E2D021D431449200035800EF05E
:106480001BFA0A22396820000EF083FA1049200016
:106490000EF012FA31880A2220000EF07AFA3388C0
:1064A0000120002B00D10420FFF728FE05B0F0BD2D
:1064B00000510020060000202C4A00209AD701003D
:1064C000E8040020A8D70100E6040020ACD70100B2
:1064D000B3D7010073B51A4D1A49040028000EF015
:1064E00007FA1949194E002C17D00722684613F0F5
:1064F00010F800246B460A22195D28000EF05FFA9E
:106500000134310028000EF0D7F9072CF2D1220017
:1065100069460F480EF0B4FE73BD07310722684686
:1065200012F0F7FF6B460A22195D28000EF047FAB9
:106530000134310028000EF0BFF9072CF2D1E6E754
:106540002C4A002083D7010080D401001BD5010014
:1065500000510020F7B516000F002A4D01902A497E
:1065600028000EF0A9F90A22310028000EF00DFAD9
:10657000280026490EF0A0F91022310028000EF064
:1065800004FA280022490EF0B3F9390028000EF071
:10659000AFF9204C0222204920000EF071FE6B461C
:1065A000200019790EF051FDB31C1912C9B2200058
:1065B00001930EF04AFD6B46200019790EF045FD5F
:1065C0003200390020000EF05BFE310038000DF083
:1065D0004FFD0600114928000EF06EF9102231001F
:1065E00028000EF0D6F93112C9B220000EF02DFDB0
:1065F000F1B220000EF029FD0222094920000EF020
:106600003FFEF7BD2C4A0020D9D70100E8D7010092
:10661000801002000051002006000020EBD701008E
:1066200004000020F0B5D54C8BB000AFD449200059
:106630000EF042F9D34920000EF05AF9D24D2E78CF
:10664000012E08D1D14920000EF052F90223012277
:106650003B77123372E0022E52D1CD4920000EF06A
:1066600047F9CC4BCC481988012302398B4206DA12
:10667000C218EE5C013A01331670DBB2F6E7C74E82
:10668000C749300010F06AFAC64920000EF014F92C
:106690000025C04B1B88033B9D4218DABE4B1022DD
:1066A000595D20000EF071F9BB4B08205A5D142390
:1066B0003818BD49C01814F0E5F808221423BA1898
:1066C000D1183000013510F08EFAEDB2E1E720006C
:1066D0000EF0FCF8B54920000EF0EEF83100200075
:1066E0000EF0FCF80020FFF74DFD072800D097E0E2
:1066F000AF4B05389A68196892B2FFF72BFF8FE00D
:10670000062E20D1AB4920000EF0F2F80C214823D0
:10671000A14AA9480CF073FEA849002807D00A2115
:106720000B22A7480AF03CFDA64900288ED1200084
:106730000EF0DEF8042301223B771033082179188C
:10674000C9180320D9E7082E00D06CE09E4920002C
:106750000EF0CEF80823FA189149D01810F06AF913
:106760008C4B1988012302398B4208DA0C22BA18A3
:10677000D218E85C013A01331070DBB2F4E79349B8
:1067800020000EF099F80025824B1B88033B9D42A8
:1067900023DA0C23FB185E5D1022310020000EF07E
:1067A000F4F8082332008A49F81814F06BF808222C
:1067B00031001426BB18981910F05BF90822BB1899
:1067C000B8189919801810F008FA0822BB189819FF
:1067D000013510F0E5F8EDB2D6E7082520000EF0FF
:1067E00075F87C4920000EF067F87B1959192000D4
:1067F0000EF074F87B19581910F02FFA0100704848
:106800002C000AF0E7FC022379193B771233C918F0
:1068100003200122FFF79EFE7B19181910F0C0F823
:10682000BD460BB0F0BD092E5DD16B4920000EF0C6
:106830005FF80823FA185A49D01810F0FBF8554BA6
:106840001988012302398B4208DA0C22BA18D218AF
:10685000E85C013A01331070DBB2F4E75F492000D5
:106860000EF02AF800254B4B1B88033B9D4223DA90
:106870000C23FB185E5D1022310020000EF085F81D
:10688000082332005249F81813F0FCFF08223100A7
:106890001426BB18981910F0ECF80822BB18B81889
:1068A0009919801810F099F90822BB189819013528
:1068B00010F076F8EDB2D6E7082520000EF006F8C5
:1068C000474920000DF0F8FF7B19591920000EF000
:1068D00005F87B19581910F0C0F9010038482C0050
:1068E0000AF084FC8FE70A2E00D096E03D49200094
:1068F0000DF0FEFF0823FA182949D01810F09AF875
:10690000244B1988012302398B4208DA0C22BA1869
:10691000D218E85C013A01331070DBB2F4E7324977
:1069200020000DF0C9FF00251A4B1B88033B9D4238
:106930005CDA0C23FB185E5D1022310020000EF0A3
:1069400024F8082332002249F81813F09BFF08228C
:1069500031001426BB18981910F08BF80822BB18C8
:10696000B8189919801810F038F90822BB1898192E
:10697000013510F015F8EDB2D6E7C0462C4A0020DC
:1069800016D501001DD50100EC04002033D501000F
:1069900043D50100E60400205004002098040020A4
:1069A000E0E901004BD5010061D5010066D5010089
:1069B0004404002086D50100A446002094D501009F
:1069C0001C030020ADD50100CCD50100D5D50100B8
:1069D00006DA0100E6D50100F8D5010002D6010073
:1069E00014D6010027D601002FD60100082520006B
:1069F0000DF06CFFCF4920000DF05EFF7B19591997
:106A000020000DF06BFF7B19581910F026F90100DA
:106A1000C9482C000AF0FBFBF5E60B2E5DD1C749F7
:106A200020000DF065FF0823FA18C549D01810F0B2
:106A300001F8C44B1988012302398B4208DA0C2271
:106A4000BA18D218E85C013A01331070DBB2F4E7EF
:106A5000BD4920000DF030FF0025BA4B1B88033BD9
:106A60009D4223DA0C23FB185E5D102231002000CA
:106A70000DF08BFF08233200B449F81813F002FF21
:106A8000082231001426BB1898190FF0F2FF0822D3
:106A9000BB18B8189919801810F09FF80822BB1875
:106AA000981901350FF07CFFEDB2D6E708252000DC
:106AB0000DF00CFFA64920000DF0FEFE7B195919C0
:106AC00020000DF00BFF7B19581910F0C6F80100DB
:106AD00099482C000AF0A3FB95E60C2E5DD19D4948
:106AE00020000DF005FF0823FA189549D0180FF083
:106AF000A1FF944B1988012302398B4208DA0C223A
:106B0000BA18D218E85C013A01331070DBB2F4E72E
:106B1000914920000DF0D0FE00258A4B1B88033BD5
:106B20009D4223DA0C23FB185E5D10223100200009
:106B30000DF02BFF082332008449F81813F0A2FE51
:106B4000082231001426BB1898190FF092FF082272
:106B5000BB18B8189919801810F03FF80822BB1814
:106B6000981901350FF01CFFEDB2D6E7082520007B
:106B70000DF0ACFE794920000DF09EFE7B195919ED
:106B800020000DF0ABFE7B19581910F066F80100DB
:106B900069482C000AF054FB35E60D2E5DD16B469A
:106BA0006F4920007B600DF0A3FE6A46654B198893
:106BB0004B1DDB08DB00D31A9D4601236E460239CC
:106BC0008B4206DAF218E85C013A01331070DBB24E
:106BD000F6E708221423BA185949D0180FF02AFFF3
:106BE000604920000DF068FE0025564B1B88033BD2
:106BF0009D4217DA715D102220000DF0E0FE08239F
:106C0000F818725D5849C01813F03CFE08231A00AA
:106C1000F918C918BA180C33D01801350FF0E3FF72
:106C2000EDB2E2E708231425FA18511920000DF0FF
:106C300055FE310040480AF00AFB0C2102230122D4
:106C4000791803203B73FFF785FC0823FB185819BC
:106C50000FF0A6FE7B689D46E2E50E2E4ED16B46F8
:106C6000424920007B600DF043FE6A46354B19888F
:106C70004B1DDB08DB00D31A9D4601236E4602390B
:106C80008B4206DAF218E85C013A01331070DBB28D
:106C9000F6E708221423BA182949D0180FF0CAFEC3
:106CA000334920000DF008FE0025264B1B88033BCE
:106CB0009D4217DA715D102220000DF080FE08233E
:106CC000F818725D2849C01813F0DCFD08231A007B
:106CD000F918C918BA180C33D01801350FF083FF12
:106CE000EDB2E2E708231425FA18511920000DF03F
:106CF000F5FD310010480AF0B0FA9EE70F2E70D172
:106D00006B461C4920007B600DF0F2FD6A460D4B7E
:106D100019884B1DDB08DB00D31A9D4601236E4604
:106D200002398B4228DAF218E85C013A013310701C
:106D3000DBB2F6E73FD601001C03002050D601006D
:106D4000E0E90100E604002059D6010006DA01005E
:106D50006AD601007CD6010089D601009ED60100CA
:106D6000B4D60100C4D6010061D50100DED6010011
:106D7000ECD6010006D7010008221423BA182149D5
:106D8000D0180FF057FE204920000DF095FD00258A
:106D90001E4B1B88033B9D4217DA715D10222000B9
:106DA0000DF00DFE0823F818725D1949C01813F094
:106DB00069FD08231A00F918C918BA180C33D0183D
:106DC00001350FF010FFEDB2E2E708231425FA18A1
:106DD000511920000DF082FD31000E480AF0F4F93F
:106DE0002BE7102E00D01BE50B4920000DF080FD95
:106DF00008480AF039FA002801D0FFF727FC0749B4
:106E000095E4C046E0E9010015D70100E604002042
:106E100061D501001C0300202BD7010037D70100EA
:106E200070B500241C4B1B88A34227D01B48C218F6
:106E3000911E0C78013A023B127899B22402144355
:106E40000DF016F90600164D164928000DF034FD18
:106E50001022210028000DF09CFD134928000DF0A0
:106E60002BFD1022310028000DF093FD0520B442C7
:106E700010D10E4928000DF03BFD01240C4D2B686C
:106E8000012B01D1FFF7CEFB2B68022B02D1200092
:106E9000FFF720FB70BDC046E6040020EC04002094
:106EA0002C4A00205DD7010068D7010077D7010088
:106EB000E804002013B5144C20000EF0C3F901289B
:106EC00020D9022201A920000EF04FFA02220F4918
:106ED00001A812F00FFB002814D10D4C0D49200021
:106EE0000DF006FDFFF79CFF052808D10A49200098
:106EF0000DF0FEFC032101220800FFF72BFB002010
:106F0000FFF7FCF813BDC04600510020040000202C
:106F10002C4A0020BCD70100C8D7010070B5154C21
:106F20002368002B01D1FFF761FA2368012B1BD1E5
:106F300011480EF0C3F9114D114A2B88114EC1B200
:106F4000D154300010220DF03AFD0F4930000DF001
:106F5000B3FC2B880D4A013312889BB22B809A42D6
:106F600002D80420FFF7CAF82368042B01D1FFF7E9
:106F7000A1FF70BDE004002000510020E4040020C7
:106F8000EC0400202C4A00201BD50100E604002060
:106F90000C31890041184B6810B5002B00D0984780
:106FA00010BD000007B50021034800910B000A0046
:106FB0000DF03CFC07BDC0468805002010B5024816
:106FC0000AF062FA10BDC046A405002037B50500DE
:106FD0000E4C0F4A200002210AF0FDFEAB6A200091
:106FE0000C4A02210AF0F7FEEB6920000A4A02214E
:106FF0000AF0F1FE2B0054331B88084A009302214B
:10700000AB6C20000AF0E7FE37BDC0468C4600207E
:1070100009DA01003CDA01004ADA010057DA01001E
:1070200013B5040013F0D6FC0023C2B20193009301
:10703000210062200AF004FD012016BD70B5040095
:107040000A4B036028300FF0ABFC20001C300FF01F
:10705000A7FCA06823000833984204D005680FF00D
:107060002BFE2800F6E7200070BDC04624D80100A2
:1070700010B50400FFF7E2FF20000FF01DFE200016
:1070800010BD0000F7B5060000250C270400394BA1
:10709000083603603A0029004560300012F055FAC6
:1070A0002000A660E66014300AF0C6F92000324ED7
:1070B0001C3031000FF0BEFC2000310028300FF0F2
:1070C000B9FC20003A002900343012F03EFA2000CA
:1070D0002A4B3100083323602564656448300FF083
:1070E000A9FC2000802229005200563012F02DFA0F
:1070F0002300FC33DD652000AE2361305B00E554E6
:10710000FF3009F0FBFF9E239B00E0181C4B1D4A3B
:1071100029000093022300F0BDFC1B4B2900E0185E
:107120000AF056FF194B3100E0180FF083FC184BA2
:107130003100E0180FF07EFC164B3100E0180FF024
:1071400079FC154B3100E0180FF074FCFD239B0116
:10715000E554124B1249E550124BE0180FF06AFC4F
:10716000114B3100E0180FF065FC104B2000E55486
:10717000FEBDC04624D80100E0E9010024DB010087
:10718000BD6F000050D80100483E0000103F0000D5
:107190001C3F0000283F0000343F0000443F000037
:1071A0001FDB0100483F0000543F0000603F00002B
:1071B00010B540680AF0C4F902384342584110BD86
:1071C0001B4BF7B5C7181B4B0400C1180022380031
:1071D0000BF061FB184E011E09D1164BE35830002D
:1071E0000093164A164B0AF0F6FD0320FEBD154B20
:1071F0001549E51828000FF00FFD021E07D12900E0
:1072000038000BF048FB011E01D10E4BE6E70F4A98
:10721000022130000AF0DFFD01212000FFF7B8FE57
:10722000094928000FF0F8FC431E98410430DDE7BF
:10723000483E0000343F00008C460020CFDA0100B9
:1072400077DB01001C3F0000E0E9010000DB0100EA
:1072500037B504001248FFF7E3FE1248FFF7E0FEDF
:10726000114BE558280013F0B5FBC1B228000AF015
:10727000ADFBC0B200280AD000900C4B0C4A002194
:107280000C480AF0A8FD01220B4BE25037BDBFF3BA
:107290004F8F0A4B0A4ADA60BFF34F8FC046FDE7B3
:1072A000ABD90100BFD90100543F000040DB010011
:1072B000D7D901008C460020443F000000ED00E0DB
:1072C0000400FA0513B5002107480B0000910A00DD
:1072D0000DF0ACFA054C2000FFF7D4FE044A054936
:1072E00020000FF01CFD13BDF84400209005002085
:1072F000000000206975000010B5024BC0180AF0AC
:1073000013FF10BD483E000073B5060004000B4B90
:1073100054363288C018A16C0BF0DAFB050003204C
:10732000002D0AD1338806480193A36C054A0093C7
:107330002900054B0AF04FFD280076BD483E0000AD
:107340008C4600209DDA01005EDB010073B51D0054
:107350000D4B1600C41800232A000193009320004F
:107360000AF0F3FF002801D1002076BD2A00310089
:1073700020000AF021FF0028F6D020000BF0D7FBF8
:10738000431E9841F1E7C046483E0000002380229A
:1073900070B5C6B0040002930093083002AB5200EF
:1073A00006A900F02EF9002819D1029A002A16DD4C
:1073B00026002500FC365635F26506A9280012F095
:1073C000A8F8084B03A8E1180FF0B6FBF36D2A00EC
:1073D00003A92000FFF7BAFF03A80FF0E1FA46B0B7
:1073E00070BDC046283F0000F0B5274B85B0C618D9
:1073F000040030000AF098FE051E13D10100234B53
:10740000234A24480AF0E7FC30000BF07DFBAE2352
:1074100001225B00E25402212000FFF7B9FD2800A1
:1074200005B0F0BD2000AE2508306D0000F02FFA49
:10743000635D002B15D02600FC36F36D002B10DDAC
:10744000154B01A8E1180FF077FB2200F36D5632BF
:1074500001A92000FFF77AFF01A80FF0A1FA00238D
:1074600063550E4E2000FFF791FFA35D0525002B0D
:10747000D5D000270A4B2000E750FFF787FFA7551C
:107480002000FFF7E5FECAE7483E00004DDB0100A3
:107490006ADA01008C460020283F0000603F0000AF
:1074A000443F000030B5162504008BB02A000A497D
:1074B00004A812F02EF8094B01A8E1180FF03CFBCC
:1074C0002B0004AA01A92000FFF740FF01A80FF03C
:1074D00067FA0BB030BDC04638D80100103F00003D
:1074E00070B504000CF0B6FE636C054A0500C31AC3
:1074F000934203D92000FFF7D5FF6564042070BDD7
:107500001027000010B50400006C052807D80FF004
:107510000DFC0312181C20242000FFF749FE114B1C
:107520002064E41820000AF0FFFD002802D02000AB
:107530000AF0AEFF10BD2000143009F0A5FF0220B4
:10754000EDE72000FFF7E0FEE9E72000FFF738FE57
:10755000E5E72000FFF7C4FFE1E72000FFF744FF65
:10756000DDE7C046483E000010B50400184B083364
:107570000360184BC0180FF013FA174BE0180FF008
:107580000FFA164BE0180FF00BFA154BE0180FF03E
:1075900007FA144BE0180FF003FA134BE0180FF042
:1075A000FFF9124BE0180AF0D9FC9E239B00E0186B
:1075B00000F028FA20006130FF3009F053FD200070
:1075C00048300FF0EDF92000FFF738FD200010BD26
:1075D00024DB0100543F0000483F0000343F00001E
:1075E000283F00001C3F0000103F0000483E000004
:1075F00010B50400FFF7B8FF20000FF05DFB20007E
:1076000010BDF0B58DB01F0012AB1B780190039335
:1076100004A80023029100F0B7F8012208A9524201
:1076200004A800F0B8F8041E2BD1019B00901D683F
:10763000019BAB4216D0AE68300000F0D1F80028B4
:107640000ED00222B36993430AD1039A08A93000ED
:1076500000F0F5F8434243410400009AD318009328
:107660002D68E5E763000CD108A904A800F098F89C
:10767000041E06D1009B002B06D0049B029A9B1A85
:107680003B6020000DB0F0BD3860FAE70368002BC6
:1076900001D0013B0360704770B5150004004268DB
:1076A0000068131A5E1B0BD5002A03D0ED1A0023C5
:1076B000636023608020236800065D19256070BD2B
:1076C0002A0011F026FF236800205D192560F6E7E7
:1076D0007FB508A90E7819BA02910F2115BA039542
:1076E0006944002B0BD1172A09D86B462D0E75194A
:1076F000DD7304AB5A1AFFF7CFFF04B070BD01244D
:10770000002B02D1FF2A00D81C1CE4B2002B0BD1A5
:10771000074B934292415242A4180123A3401836CA
:10772000C91AA4190C70E4E70234E4B2F5E7C046C4
:10773000FFFF00007FB51D0003680C000B6043686D
:1077400008304B601600FFF7A1FF2023721C2B406E
:10775000A260E360711C0CD104220F211343694421
:107760001F35E360033A20000D70FFF795FF04B06A
:1077700070BD002B01D09219A26000953200002349
:107780002000FFF7A5FFF2E701608918022241609F
:107790008260C360704710B58023FFF7CBFF10BD38
:1077A0000B6807B503604B68CA684360520707D58A
:1077B0006B46D91DFF2301220B70FFF76DFF0EBD35
:1077C0008868012805D0431E9841C0239B00C0183B
:1077D000F5E71800431E98418023C0071B06F6E713
:1077E000030070B52C331B7805000124002B06D054
:1077F00003002D331C78002C03D000221A702000C7
:1078000070BD836A002B0DD103681B689847002860
:10781000F5D00CF01FFD2B6BC01A6B6998426441C8
:10782000E4B2ECE7012B05D10CF014FD2B6BC01A70
:107830006B6BF3E7022BE2D14D352C78DFE70300C9
:107840004C3370B51A700023836403680400DB684E
:107850009847051E0CD1236820009B689847230099
:1078600001222C331A7021331D700CF0F3FC2063BD
:10787000280070BD0223826910B59A430400002AD3
:1078800004D1C369002B01D09847A06310BDF8B59F
:10789000060002270568AE4214D0AC6823682000B9
:1078A0005B69984700280BD0236820009B699847A4
:1078B000002805D0A369BB4302D12000FFF7DAFFFF
:1078C0002D68E8E7F8BD0020704713B56B460268E5
:1078D000D9710733546819000122A04716BD13B5AA
:1078E0006B46DC1D036801225B6A21009847012872
:1078F00001D1207816BD01204042FBE710B5006998
:1079000003681B6B984710BD036870B5DB6A040001
:107910000D0016009847002809D0236832005B6AE2
:10792000290020009847431C03D1002001E00120DA
:10793000404270BD036870B5DB6A04000D0016009C
:107940009847002807D0236832005B682900200090
:107950009847002801D10120404270BDF8B50500CC
:107960000F0016000024B4420AD20B4B320039003B
:10797000E81808F076FB00280BDB3F182418F2E724
:10798000B44206D1044BE81808F08DFBC043C01781
:1079900004402000F8BDC046BC3B000010B5040008
:1079A000044BC01808F07FFB20690368DB68984728
:1079B00010BDC046BC3B0000044B10B5C01808F019
:1079C000F9FAC343DB17184010BDC046BC3B0000AA
:1079D00010B5024BC01808F0C9FA10BDBC3B00003E
:1079E00013B56B46DC1D064B0122C018210008F0C0
:1079F00005FB012801D1207816BD01204042FBE79C
:107A0000BC3B0000084B10B508330360030038335B
:107A10001B780400002B04D0006B002801D011F06B
:107A20004DFD200010BDC04604DC010010B504006F
:107A3000FFF7E8FF20000FF03FF9200010BD10B560
:107A4000040000690368DB6A9847002807D020001B
:107A5000403006F061FF0138431E9841C0B210BDAE
:107A600010B5040000690368DB6A984700280DD050
:107A70002000403006F050FFC30703D4044BE01849
:107A800008F01CFB206903689B6A984710BDC0463C
:107A9000BC3B000070B5FA250024AD0085600E4D9A
:107AA000049E83610835431C4460056001614261A6
:107AB000C661DC77A64205D1084B094A2E21094848
:107AC00011F00EFA0300383344628462C462046326
:107AD00044631C7070BDC04604DC010092DB0100F1
:107AE00048DC0100ACDB0100F0B5D923050004003F
:107AF0008FB040351B0142690591C1188369280088
:107B000009F068FA3F4A404BA118404AE318009236
:107B100028003F4A06F0DEFC3E4E06AF30000BF078
:107B2000CBFA002809D10026FF2100200EF02BFF00
:107B3000B8550136202EF7D12DE030000BF016FCA1
:107B40000028F0D02022390030000BF079F900280D
:107B5000E9D0314B314A3249A350324A6118A25818
:107B60000B60314BE3181A60636B002B13D0E36A90
:107B7000002B10D002F026FA2C4B21000393022395
:107B800001932E33009323000290243301223031DD
:107B9000280006F0ADFA39002022280006F03CFD4E
:107BA00000220599280006F0DFFAE3699847204B88
:107BB0002049E61807000FF0CDF81F4B1D49C018EB
:107BC000706338000FF04CF91C4BB1631C4AE61887
:107BD000236930000193009229001A4A08F0BEF987
:107BE000300008F060FA08260124280006F094FE10
:107BF0000300334004D12042F7D018000FB0F0BD8D
:107C00000120FBE7781900006739000055020000E9
:107C1000EF1F0000A4460020D51201004C0D00000B
:107C20006C190000440D0000701900009912010049
:107C30008C0E000080510100A8FA0A00BC3B000035
:107C4000357900000979000030B504000069496801
:107C50000368084D85B001910391DB69029502A983
:107C60009847002803D000212000FFF73DFF05B012
:107C700030BDC046FC0A020070B5050000690C006A
:107C800003681B6A9847002809D06B1CDB7F28001B
:107C90005A4253415B421C402100FFF725FF70BD53
:107CA00007B50021034800910B000A000CF0BEFD4F
:107CB00007BDC046004500200269F0B51400836886
:107CC00097B05C40C1690994446886694C4003944C
:107CD0000C0054400A940C0045695C40049404680C
:107CE00075406C400090019403985440099A0D949B
:107CF00042400B92019A01984A400E92009A5268B3
:107D000042400F920F98049A42401092009A0B98AA
:107D1000D268424053400593009B72401B6805980F
:107D2000039C4340119303006B4006930A9B0A9EF9
:107D300053400793009B07981B68049F434012938E
:107D4000069B96434340139303006B4008930B9D9F
:107D5000059B13981D40089B6A401C40099B0340EB
:107D600006987340074077401198109E0640564091
:107D7000009A0D9812685E400240049842400698AE
:107D80004240009855404068019A7D4082430398E4
:107D90004240089842406240414053404C40129A51
:107DA0000E99180011404C407C40270031001E40C5
:107DB00077403A0069400A406A406040754005409B
:107DC0002000684075402C404340634002901800FA
:107DD0007C401440614048400C901000484084466C
:107DE0000298029D584014900098029C00680C9FD5
:107DF000284015906046089D54400540089565460A
:107E00000198139E0840019012986740104012900C
:107E100010983E40184010900398284084460998D6
:107E200038400A9F03902740784009900F980140FE
:107E3000129848400A9005991498159F0140089897
:107E4000089D4140604647404F4005970998019F73
:107E500047400798044065400C98069C75400440D4
:107E6000664014980B9C7E400440109844400E9845
:107E7000674002400598019C424011986C400340C5
:107E80007B4059406F40CD43724065405440E443CD
:107E90000098F643C7618561049F0C9807400398DA
:107EA0004740674064460098476101611599129800
:107EB00041404B400099CB600D9B02990B401099BB
:107EC0004B405A40009B09999A600A9B5C40009B7A
:107ED00066405E60059B5940C9430A9B5940009B20
:107EE000196017B0F0BD00000268F0B516004E4CE6
:107EF0004E49456852086B0022400D402A43856870
:107F000026400B4033432E00C76887B001926D08AE
:107F10007A0026400F400A40254032433D434669DF
:107F200002950569770025400F402F4305690E40F3
:107F30006D08254035430395C56900936E0085693A
:107F40000E4025403543866976082640C4692140A5
:107F50000E43374CB4469600264033003549009E08
:107F600022400E401E43009B04969B080B40134387
:107F70000093029B9A00019B22400B401A430592FA
:107F80003A00019B0A409E08029B0E4023401E437C
:107F9000AB002340134362460196039E92000E40BD
:107FA00022403243039EBF08B6080F403140664668
:107FB000254034402143204C3D431F01274002937C
:107FC0003B001E4E049F37403B43049F0360029BCF
:107FD0003F09374023403B43059F0361130137406E
:107FE00023403B434360059B22401B0933401A4317
:107FF0004261009A2B013240234013438360009B6F
:1080000025401A0932401543019A0B0132402340A2
:108010001343C360019B21401B091E40314385610E
:10802000C16107B0F0BDC04655555555AAAAAAAAC8
:10803000CCCCCCCC33333333F0F0F0F00F0F0F0F48
:1080400000B589B0009001900290039004900590D3
:10805000069007906846FFF747FF6846FFF72CFE3B
:108060006846FFF741FF009809B000BDF0B5FFB0CA
:108070000490182A06D0202A38D00027102A32D19E
:108080000A2700E00C2700207B1C9B0001930300C3
:108090009408A3422CDB00252E00E30006AA9B18BF
:1080A0000293009563190393019B6219934232DC9A
:1080B0000025E80006AC0019FFF716FF019B043508
:1080C000AB42F6DC0023274E274DD90062185268D8
:1080D0000959324029400A43049998000A50019AEC
:1080E00001339A42F1DC38007FB0F0BD0E27CAE7B9
:1080F0009A00565C8A18557890782D022E43000419
:108100000643D07806AD0006DA0030435051043201
:10811000A8500133BDE7002E1CD10823D841FFF73A
:108120008FFF124B009A9B5C5840EB0006AA9A58AE
:10813000013650400592029AD050039B06AADB00FC
:108140000433D050B44203D10026009B0133009386
:108150000135A7E7062CE8DD042EE6D1FFF770FF16
:10816000E3E7C046AAAAAAAA55555555A5DC0100C1
:108170000131F0B50901094D094E89188A4200D133
:10818000F0BD08CA1F002F407C003C433340046010
:108190005C08234343600830F0E7C0465555555509
:1081A000AAAAAAAA0B0A017043700B0C090E8370CD
:1081B000C1707047437802781B021A438378C078F5
:1081C0001B0413430006184370470000044B10B50E
:1081D000040008C0FFF74AFFF434206010BDC04619
:1081E000B0DC0100F0B53E4C0D00A5440593030042
:1081F000F433196800901400021D16A8FFF7B8FFA9
:108200002800FFF7D7FF0290281DFFF7D3FF039048
:1082100028000830FFF7CEFF949D0490059B949AA8
:108220009F187F1B002D4BD0029B06A80793069337
:10823000039B0EAE09930893049B0B930A9323BAF6
:108240000C93631C01931BBA0D93FFF74DFE009B2B
:1082500006AAF433186816A900F08FF806A8FFF7ED
:1082600043FE06993000FFF79DFF08990FA8FFF71E
:1082700099FF0A9910A8FFF795FF0C9911A8FFF72D
:1082800091FF079912A8FFF78DFF099913A8FFF72F
:1082900089FF0B9914A8FFF785FF0D9915A8FFF723
:1082A00081FF0023202D10D8F95CF25C4A40FA547B
:1082B00001339D42F8D1102D01D9A31C0193019CDB
:1082C00020008F239B009D44F0BDF95C9A5D4A40DD
:1082D000FA540133202BF8D1203D02349EE7C046EA
:1082E000C4FDFFFF0A680368534003604A6843689F
:1082F000534043608A68836853408360CA68C36898
:108300005340C3600A690369534003614A69436982
:10831000534043618A69836953408361CB69C26971
:108320005340C36170470300F7B5FC27C026FF2503
:1083300020330193BF0136020368F0249A089901A3
:1083400031403A400A43190029400A4324031909DD
:108350002140F0240A43240419012140C0240A4387
:10836000A40499099B0021409B0E9B060A431A43D3
:10837000019B04C08342DFD1F7BDF0B58BB00990FB
:10838000100002911400FFF7ADFF0123082510260D
:108390000193019B099A200093420DD3FFF78CFCB7
:1083A0002000FFF7C0FF099B20005901029B5918CC
:1083B000FFF798FF0BB0F0BDFFF77EFC2000FFF742
:1083C000B2FF6268E169EA419446A2682068EA4126
:1083D0000392E2680300EA4104922269EB41EA4118
:1083E000059262690F00EA410692A2695840EA418B
:1083F00007920A00EA41574008977B400700F7417F
:108400007B402360634667685F4053404B40434076
:108410003800F04143406360A068039B58405F40D0
:108420000300F3415F40A760049BE7685F4053404F
:108430004B4058403B00F3414340E3602069059BBB
:10844000584053404B407B4019000300F3414B40E0
:1084500023616169069B594058400B00F341584025
:108460006061079BA069594058400300F34159409F
:10847000A161089B4240F3415A40019BE2615901CE
:10848000029B20005918FFF72DFF019B0133019338
:108490007FE770B500254042AB4200D170BD4E5D14
:1084A000545D7440044074404C550135F4E710B5F8
:1084B000013900D210BD5478137824021C439378FC
:1084C0001B041C43D37804321B0623431BBA08C089
:1084D000EEE70000F0B587B00F9C0C9D0D9E0E9F3F
:1084E000172C07D01D2C0FD00394029701960095EE
:1084F000084C04E00394084C029701960095A46987
:108500000594A04707B0F0BD03940297019600952B
:10851000024CF4E704E50100F0E2010020DD010077
