:020000040000FA
:10000000FC7F002001060000F1050000F50500005E
:1000100000000000000000000000000000000000E0
:10002000000000000000000000000000F9050000D2
:100030000000000000000000FD0500004107000076
:1000400010B5064C2378002B07D1054B002B02D0AE
:10005000044800E000BF0123237010BD5C000020B5
:1000600000000000A018000008B5084B002B03D0CA
:100070000748084900E000BF07480368002B03D089
:10008000064B002B00D0984708BDC046000000007A
:10009000A0180000600000205800002000000000B0
:1000A000154A164B1178002909D115491878097895
:1000B0004118C9B21970802012498002C8611178B4
:1000C0000131C9B211701978F02902D819780929BB
:1000D00009D80B4908784042C0B2087018780978EE
:1000E0004118C9B2197012781B789A4203D1802244
:1000F000044B9202DA617047780000200100002072
:10010000000000200044004110B5C3699C07FCD4E6
:1001100003680224A3430360C46901231C42FBD18A
:100120000468234303600368DC07FCD4C46901232B
:100130001C42FBD1C469DC401C42F7D1084B1A4376
:100140000260C3695A07FCD4C0239B0243608181CB
:10015000C3699C07FCD4036802221343036010BDEB
:1001600004000040037EDA07FCD5018570470000DB
:10017000027E01235107FBD5428B1A4207D1428BE5
:10018000DA401A4203D1428B92081A4202D0034B42
:1001900001221A70008DC0B27047C046790000205D
:1001A00070B50368041C988B1A1C0821FF320842A2
:1001B00026D0802099839872112353704021144BCC
:1001C000917150715E68134DC0202E40800506432A
:1001D0005E605E693540284358610F4818600F48DB
:1001E00018615D680E4828408025AD02284358609C
:1001F0005868800B8003586000235171237105E01B
:10020000137ADA0602D5201C00F0D4FA207970BDEA
:1002100098010020FFFFFF8F9800002018010020A8
:10022000FF3F00F0002303714371044B01608360C2
:100230000B78022213430B707047C046A1010000E7
:1002400038B5364B2021DA6901200A43DA61344B94
:1002500006241A7802431A70324B0F221978914300
:1002600019701978214319702F490C7820430870B0
:1002700019780A401A701A7860210A431A702B4BB9
:100280002B4A5A805A7852B2002AFBDB294B0121B3
:100290001A780A431A709A78D107FCD42648026863
:1002A000510B1F221140914200D1052111408C01B8
:1002B0001D8D22492940214319850468A10C0A405B
:1002C0001F2A00D11D221C8D1F210A408C4322436E
:1002D0001A8502680721D20D0A408A4200D1032202
:1002E0000A40188D1103164A02400A431A851978EC
:1002F0007F220A401A701A78042112480A431A70A1
:1003000058621A890C218A431A811A8901218A4369
:100310001A810021802201F040F938BD000400401C
:10032000584400413C44004159440041000C004005
:100330000640000000500041246080003FF8FFFFAD
:10034000FF8FFFFF98010020F7B5141C1F4A5F01C3
:1003500001971D1CD319061C5869271C4000400F2B
:1003600003301033C74006D00F1C80225968120694
:100370000A435A6009E02F1C7B1E9F41144BBF01AA
:10038000FF18381C221C01F0FFF801990F480835AE
:1003900042181761131C5269A104920B890C920335
:1003A0000A435A6159690B4A0A405A616B01F318B2
:1003B0000222DA715979802252420A435A716B0142
:1003C000F318DB799A07FAD5201CFEBD98010020AE
:1003D00018010020FF3F00F0F8B51A4E051C3378D5
:1003E000141C002B12D1184B184A1A645A6C920B29
:1003F00092035A64586C164A02405A64A2235B0066
:10040000EA5C40200243EA54012333704827FF3757
:10041000EA5D0123134012D00B4B5A6C9204920CEC
:10042000A24202D25C6CA404A40C081C221C074942
:1004300001F0AAF80123EB550023337000E01C1CE7
:10044000201CF8BD7A00002098010020D800002070
:10045000FF3F00F0FF3083792022002900D11022D5
:100460001343837170470000084BFF305A69920BA9
:1004700092035A6102230372827980235B42134301
:100480008371037A9A07FCD57047C0469801002013
:1004900080235B421943C9B28172704770B5A023B3
:1004A00003225B00C254134B134A5C6CC0211440FE
:1004B00089050C4346255C64FF35402444550F4DA7
:1004C00030261D6490256D0046555D6B154029430F
:1004D000922559636D0080214155094D1D63B0255A
:1004E0006D0044555C6F22405A67B2235B00C154D3
:1004F00070BDC04698010020FFFFFF8FD80000208C
:1005000058010020024B5B785BB2002BFADB70478E
:10051000000C0040024BDB68DA06FBD57047C04692
:1005200000080040F8B5264B1E215A6802268A436F
:10053000244C32435A60A660FFF7E4FF224B234D60
:100540006360FFF7DFFFAE84FFF7E4FF204B1B681B
:100550009B0E3F2B00D11F231E4A9B0213431E4AB2
:100560000026EA62AB62AE84FFF7D4FF1B4B022782
:10057000AB84FFF7CFFFAB8C3B43AB84FFF7CAFFE5
:1005800063883F2293431F43678062888023DB0197
:1005900013436380A660FFF7B5FF114B6360FFF75D
:1005A000B1FF104B104AC0215A60104A0906106A68
:1005B0000002000A0143116207229E601A60F8BD22
:1005C00000400041000C004006000100000800400F
:1005D00024608000FF01000080BB0A1C240500008D
:1005E0000007030010E000E0E703000000ED00E07A
:1005F0000EBEFEE70DBEFEE705BEFEE702BEFEE74D
:100600000E4A0F4838B5824204D10E4A0E4B93422F
:100610000ED10AE00D4C9442F7D00023D118884245
:10062000F3D9E55804330D60F8E700F011F804E061
:100630009342FAD2002102C3FAE7FEE7000000204D
:100640005C000020A80300205C000020A41800002B
:1006500038B5304B1A681C1C013221D02E4A191DA6
:100660001160D9B200291BD12C4A10780122104008
:100670002B4A0AD115682B498D4201D110600FE039
:100680001160294901390029FCD11160226882F3E7
:100690000888FF229343254A93601E4B5B681847E6
:1006A000FFF740FF62B600F09DFD00F04FF8204BD1
:1006B000802292029A601F4B1F4A041C5A601B4AF8
:1006C000C021106A09060002000A014311620022DB
:1006D0009A6007221A60A368201C9847174B0028CD
:1006E00001D001221A701A78002A05D0002000F0EB
:1006F0008BFA00F003FBFCE71B78002BEBD100F03A
:10070000E5FD0028E7D0012000F07EFA00F0F6FABF
:10071000FCE7C0460020000018020020380400401A
:10072000FC7F00203581730748E8010000ED00E000
:100730000044004110E000E0E70300007B000020DF
:1007400008B5FFF7ADFC00F0C3FA08BD10B5054BC6
:10075000054C2360FFF774FD201C2168FFF762FD44
:10076000201C10BD005000411C02002070B5051C6B
:10077000C0B0081C161C0C1C00F017FF40006A4695
:10078000032302305370107076080123E218013AF7
:1007900011785A00002906D1281C69460023FFF76A
:1007A000D3FD40B070BDB342F6DA684681520133E2
:1007B000ECE70000F7B5BA4A04681378B949271C7A
:1007C000FF37051C102038720B705378B648B74EAF
:1007D000037093783380D178338809020B433380D8
:1007E0001179B34B19805179188809020843188090
:1007F0009079B0490880D2790888120202430A80B1
:1008000040227A71A84F3A78A64F120238780F1C0E
:100810000243A9488446181C624500D1C2E020DC8E
:10082000802149008A4200D16EE109DC812A00D191
:1008300092E0822A00D195E0802A00D064E18BE02A
:1008400081235B009A4200D1CFE000DA58E1C02357
:100850009B009A4200D157E1984B9A4200D14FE158
:1008600052E190231B019A4269D015DCD023DB00B2
:100870009A4222D088231B019A4269D0A023DB0030
:100880009A4200D040E1201CFFF7EEFD3188286835
:1008900089B2FFF7FDFD3BE1894B9A4200D12FE180
:1008A00000DC31E1874B9A4200D11DE1864B9A4230
:1008B00000D029E133886B7122E133881B0A012BB8
:1008C00008D10B8812222868934201D80A8892B274
:1008D0007E4911E133881B0A022B08D10B88432281
:1008E0002868934201D80A8892B2794904E1338892
:1008F0001B0A032B00D007E13388DBB2012B17D092
:10090000002B07D0022B00D0FEE00A882868D2B264
:10091000704911E0042201A86F4900F035FE3B88C0
:1009200004222868934201D83A8892B201A9E3E0F0
:100930000A8828686949D2B2FFF718FFE8E03388CF
:10094000201C2B71FFF790FD201CFFF7A7FDDFE0B7
:10095000291C01C90122CFE0614900230B802868CE
:100960000222CAE05E4900220A8018885022104004
:100970005C4A10701E880F203040188018880328A9
:1009800000D9C1E012781B8808335B01E418A37911
:10099000002A01D09B0600E0DB06DB0F0B802868F5
:1009A0000222A9E019887F2291434E4AC9B21170F0
:1009B00018880F21014019803188002900D0A3E058
:1009C0001988002900D19FE01988032900D99BE0EC
:1009D00012781B8808335B01E318002A02D020221A
:1009E0005A718DE0102159718AE002887F239A4361
:1009F0003C4BD2B21A7001880F220A400280328822
:100A0000002A00D080E00288002A00D17CE0028821
:100A1000032A00D978E01B78002B1FD00388083305
:100A20005B01E3189B799A066AD503882022083374
:100A30005B01E3181A71038808335B01E318DB7963
:100A40005F065DD50388402208335B01E318DA7145
:100A50000388022208335B01E3181EE00388083391
:100A60005B01E3189B79D9064AD503881022083325
:100A70005B01E3181A71038808335B01E318DB7923
:100A80009A063DD50388202208335B01E318DA710A
:100A90000388012208335B01E3181A7130E0C04675
:100AA000980000207D0000208200002084000020AB
:100AB00086000020800000200203000001030000E7
:100AC00021200000A121000021220000F4150000D7
:100AD00004000020E0150000D0150000D41500002F
:100AE0007E0000207C0000200B88082228689342AA
:100AF00001D80A8892B207490023FFF725FC07E0D6
:100B0000201CFFF7B1FC03E0201C0121FFF7A2FC31
:100B1000F7BDC0464800002007B5054B01220190F3
:100B200001A91868131CFFF70FFC01200EBDC04679
:100B30001C02002013B5054B6C4607341868211CB5
:100B40000122FFF749FC207816BDC0461C02002098
:100B500010B5074C201CFFF723FB031C0020834229
:100B600005D022684823FF33D05C0123184010BD14
:100B70001C02002010B5054A0C1C031C191C10682F
:100B80000123221CFFF7E0FB201C10BD1C020020EB
:100B900070B5084C061C201C0D1CFFF701FB002340
:100BA000984205D02068311C2A1CFFF715FC031C55
:100BB000181C70BD1C020020F8B50C4C051C201C34
:100BC0000E1CFFF7EDFA0023271C341C98420AD0B4
:100BD000002C07D0291C221C3868FFF7FDFB241AC3
:100BE0002D18F5E7331C181CF8BDC0461C02002068
:100BF00008B5031C081C111C9847024B64221A807C
:100C000008BDC0468C000020012805D1054B064ACE
:100C10001A60064B187004E0002802D1044A014B08
:100C20001A6070478C0200202816000094000020F3
:100C30007416000030B50A1C1C4985B00978031CE5
:100C400000292AD0042A01D1006804E0022A01D137
:100C5000008800E00078520004A98B180B3B9C1A16
:100C6000A3420BD00F210140092902D83025294386
:100C700000E0373119700009013BF1E701A9302389
:100C80000B7078234B700A208B1898700D20D87049
:100C9000074B04321B68D86803E005490968C86837
:100CA000191CFFF7A5FF05B030BDC0468800002025
:100CB0008C02002072B6EFF30883044A13600368C5
:100CC00083F30888436818477047C04690020020A5
:100CD000084B1A88002A03D01A88013A92B21A8067
:100CE000054B1A88002A03D01A88013A92B21A805A
:100CF0007047C0468C0000208A000020F0B591B0FB
:100D000008A9CC4A0B1C31CA31C351CA51C360CAAD
:100D100060C3C94BC9489A687A255203520F9200A2
:100D20005258C74902609C68A4B262430C60C5492E
:100D300000240A60C44A1460C44C2570C44CC54DDC
:100D40002368281C1B6940219847002802D0C24B09
:100D500064221A80C14B00221860C14B1D60C14B38
:100D6000C04DBE4F1A602A683B689A42E6D2BC4B1F
:100D70001B681A78FF2A00D114E2232A00D0EBE185
:100D8000B94E3378002B06D0B14BB8491B6802220C
:100D9000D868FFF72DFFAD4B1B78532B3CD13B6838
:100DA0002A6893421ED9AE4801322A609A1AB04B83
:100DB00001681B6801310160AE4E9A4201D2326077
:100DC00000E03360A04832680068049000F0DCFB6B
:100DD000336829685A182A60A14A1668F118116008
:100DE000A54A13702B68013B2B609D4B1A68013A92
:100DF0001A60A14B9E4A1B7811688B420AD2226866
:100E00009148C91A006892699047002802D0924B15
:100E100064221A80C0468DE1522B0AD18A48944A36
:100E20002368006811685B69039098476422934BBC
:100E30000DE04F2B05D1844B8D4A1B6812681A7048
:100E400078E1482B05D1804B894A1B6812681A80CB
:100E500070E1572B05D17C4B854A1B6812681A60DC
:100E600068E16F2B03D1784B0121186807E0682BEC
:100E700008D1754B7E481B6802211B880360FFF771
:100E8000D9FE57E1772B06D16F4B79481B680421B7
:100E90001B680360F3E7472B13D1754B1868FFF706
:100EA00009FF774B1B6883F3088862B6754B1B7884
:100EB000002B00D13EE1664B06201B681B6898475B
:100EC00038E1542B04D101233370614B1B6864E07B
:100ED0004E2B0CD13378002B06D15D4B63491B6838
:100EE0000222D868FFF784FE0023337022E1562BDC
:100EF00057D123686449D8680122FFF779FE236837
:100F00006249D8680322FFF773FE614D2368291CEC
:100F1000D8680122FFF76CFE23685E49D8680D226D
:100F2000FFF766FE2368291CD8680122FFF760FEE0
:100F30004B4F4C4D5849002339602B603A1C281CFC
:100F400013685E1C16601B780593002B03D00368A2
:100F500001330360F4E73E4E2A683368D868FFF730
:100F600047FE33684A49D8680122FFF741FE0599D8
:100F700029604A4939603A4A1368581C10601B7846
:100F8000002B04D0374B1A6801321A60F3E733683C
:100F90002A68D868FFF72CFE3368D86833490222E4
:100FA000C6E0334A582B17D1244E264D36681368B5
:100FB0002A68B10093420AD21F4D5808E8613848A8
:100FC00028801D4D287DC607FBD55B18F2E7204B16
:100FD00034491B68D868AAE0592B79D112681A4B9A
:100FE0003149002A02D11B680B606CE0124D086881
:100FF00019686B68104E8025AB4392087360002A15
:1010000061D02A4B0C4D2B800B4E337DDD07FBD579
:1010100000230A4D2D680195AD08AB4203D3244D42
:10102000054E358046E09342F9D09D004659013384
:101030004E51EEE708160000004000414402002037
:101040003C020020380200208802002034020020E8
:101050008C020020480200208A0000202C02002080
:1010600030020020400200208800002068160000A6
:101070009402002098020020280200208C0000200A
:101080009002002094000020441600006D1600001D
:101090004616000090160000481600005416000086
:1010A00002A5FFFF5D1600009000002044A5FFFF91
:1010B00004A5FFFF3F4E357DEE07FBD59D00491986
:1010C0004019D21A9BE73C4B3C491B68D8682EE07C
:1010D0005A2B2FD13A4B17681D680026EF19BD42D5
:1010E00006D02878311C00F013F90135061CF6E70C
:1010F000314B34491B680122D868FFF779FD07237B
:101100000F223240111C36093031092A00DD073127
:101110001820C0186A468154013BF1D2236806A901
:10112000D8680822FFF764FD23682749D86803229E
:10113000FFF75EFD254B7A221A70254B00221A60BC
:10114000244B1B7893422DD01B4B23491B68012253
:10115000D868FFF74DFD25E0111C3039C8B21C4B93
:10116000092804D81D682A01114319601AE0111CCE
:101170004139052903D81E68373A310106E0111CB0
:101180006139052904D81868573A01010A4308E073
:101190002C2A03D10A4A1968116001E00B490A7030
:1011A00000221A600D4B1A6801321A600C4B1A6843
:1011B0000132D5E5004000418C020020611600009C
:1011C0008802002065160000671600003402002027
:1011D00094020020880000206B16000040020020CE
:1011E0003002002010B51C4B01201A780324024362
:1011F0001A701A4B0F2219789143197019782143EC
:10120000197017490C782043087019780A401A7031
:101210001A7830210A431A70124B80211A6A0A4345
:101220001A62114B114A5A805A7852B2002AFBDBDB
:10123000C4220F480F499203FEF766FF0E4A0023AF
:1012400013700E4A13700E4A13700E4A13700E4A32
:1012500013700E4A137010BDD6440041BB440041C8
:10126000D744004100040040000C00401940000039
:10127000001C00422AF600009C02002023030020EC
:101280009D020020A0020020240300202103002052
:1012900008B5C1B20248FEF765FF012008BDC0468F
:1012A000001C0042024B187E4007C00F7047C0462A
:1012B000001C004208B5FFF7F5FF0028FBD00248EC
:1012C000FEF756FF08BDC046001C004208B5FFF7F8
:1012D000E9FF0023984205D0FFF7ECFF031C233BF6
:1012E0005A425341181C08BD70B5041C0D1C461809
:1012F000B44204D02078FFF7CBFF0134F8E7281C74
:1013000070BD10B5041CFFF7D5FF2070012010BD83
:101310000B0A5840034B4000C05A0902484080B2B3
:101320007047C0469E160000F7B50024051C0F1C30
:10133000261CBC4220D0FFF7BDFF114BC0B21B786A
:101340000190002B1AD1311CFFF7E2FF0D4B061C58
:101350001A88002A04D10C4A11782A1C002907D0C7
:1013600001996A1C2970802F02D1198801391980CE
:101370000134A4B2151CDCE7301C00E00120FEBDE6
:10138000210300209E02002022030020F0B53E4EE3
:1013900085B0002203900C1C32703C4B914201D16D
:1013A000012201E03A490C801A707F231C4201D0CF
:1013B00080349C43FFF77EFF3378C0B2002B07D008
:1013C00000253570FFF776FF3378C0B2AB4236D1D7
:1013D000432803D0712853D01528EBD10123009363
:1013E0000120FFF755FF0098FFF752FF0099802575
:1013F000C843C0B2FFF74CFF039B00270293244A67
:101400001388002B1DD1214901930978002918D197
:101410000198FFF73DFF391C0198FFF779FF013D67
:10142000071C002DEBD1000AC0B2FFF731FFF8B264
:10143000FFF72EFFFFF73EFF3378002B0AD0357001
:101440001FE00299013B09781380029B019101334F
:101450000293DDE7C0B2062807D1009B0399013350
:10146000DBB280310093803C0391002CB8D1042082
:10147000FFF70EFFFFF71EFF044B01251C7000E075
:101480000025281C05B0F0BD210300202203002008
:101490009E020020F0B5384C87B0002301902370E5
:1014A000994201D1012301E0344A1180344A642673
:1014B00013704320FFF7ECFE324FFFF7F3FE0028D6
:1014C00003D1002F03D0013FF7E7002F03D1013EE6
:1014D000002EEED14DE00125FFF7ECFE2378002B26
:1014E00038D1C0B20290012805D004283DD1062091
:1014F000FFF7CEFE39E005AE0221301CFFF714FFE6
:1015000001988021FFF710FF23780390002B18D15A
:10151000FFF7D0FE0702FFF7CDFEBFB223783F18DA
:10152000BFB2012B0DD0039B9F4207D13378AB4252
:1015300004D1EB437278DBB29A4204D01820FFF753
:10154000A7FE002303E00620FFF7A2FE029B2278FD
:10155000002A02D0002626700BE0012B05D1019A4B
:101560006B1C8032DDB20192B6E7054A002313708E
:101570000126301C07B0F0BD210300209E02002090
:101580002203002000350C0010B50023934203D045
:10159000CC5CC4540133F9E710BD031C821893429C
:1015A00002D019700133FAE770470023C25C01339F
:1015B000002AFBD1581E7047F8B5C046F8BC08BCDD
:1015C0009E467047F8B5C046F8BC08BC9E467047BA
:1015D0000403090441726475696E6F204C4C43002A
:1015E00041726475696E6F204E4F4E4120574C41D9
:1015F0004E0000001201000202000040412357008B
:1016000000020102000100000800000010000000BC
:1016100020000000400000008000000000010000E9
:10162000000200000004000091120000B51200004A
:10163000A5120000E9120000031300008D13000042
:10164000951400007600200041707220313920325C
:101650003031390031343A33383A343800580A0DD1
:1016600000590A0D005A00230A0D003E00322E30A8
:1016700000000000190B0000350B0000510B0000AA
:10168000750B0000910B0000750B0000B90B0000FA
:101690005B41726475696E6F3A58595A5D0000007B
:1016A0002110422063308440A550C660E770088155
:1016B00029914AA16BB18CC1ADD1CEE1EFF13112CC
:1016C000100273325222B5529442F772D6623993A5
:1016D00018837BB35AA3BDD39CC3FFF3DEE362241C
:1016E000433420040114E664C774A44485546AA5F5
:1016F0004BB528850995EEE5CFF5ACC58DD55336AC
:10170000722611163006D776F6669556B4465BB744
:101710007AA719973887DFF7FEE79DD7BCC7C4487B
:10172000E5588668A7784008611802282338CCC994
:10173000EDD98EE9AFF9488969990AA92BB9F55A0B
:10174000D44AB77A966A711A500A333A122AFDDBE4
:10175000DCCBBFFB9EEB799B588B3BBB1AABA66CDB
:10176000877CE44CC55C222C033C600C411CAEED34
:101770008FFDECCDCDDD2AAD0BBD688D499D977EEB
:10178000B66ED55EF44E133E322E511E700E9FFF84
:10179000BEEFDDDFFCCF1BBF3AAF599F788F88913A
:1017A000A981CAB1EBA10CD12DC14EF16FE180101E
:1017B000A100C230E3200450254046706760B98321
:1017C0009893FBA3DAB33DC31CD37FE35EF3B1026E
:1017D0009012F322D2323542145277625672EAB531
:1017E000CBA5A89589856EF54FE52CD50DC5E234BE
:1017F000C324A01481046674476424540544DBA701
:10180000FAB79987B8975FE77EF71DC73CD7D3260D
:10181000F2369106B01657667676154634564CD990
:101820006DC90EF92FE9C899E9898AB9ABA944585D
:10183000654806782768C018E1088238A3287DCB60
:101840005CDB3FEB1EFBF98BD89BBBAB9ABB754AAD
:10185000545A376A167AF10AD01AB32A923A2EFDF0
:101860000FED6CDD4DCDAABD8BADE89DC98D267CFD
:10187000076C645C454CA23C832CE01CC10C1FEF40
:101880003EFF5DCF7CDF9BAFBABFD98FF89F176E4D
:10189000367E554E745E932EB23ED10EF01E000081
:1018A0000000000001140000090243000201008052
:1018B00032090400000102020000052400100104A6
:1018C0002402000524060001052401000107058308
:1018D000030800FF09040100020A00000007058157
:1018E00002400000070502024000000000C20100A3
:1018F0000000080069000000410000000000000036
:1020000000800020153B0000FD3A0000FD3A000072
:1020100000000000000000000000000000000000C0
:10202000000000000000000000000000FD3A000079
:102030000000000000000000FD3A0000693B0000C5
:10204000FD3A0000FD3A0000FD3A0000FD3A0000B4
:10205000FD3A0000FD3A0000FD3A0000013B00009F
:10206000FD3A0000FD3A0000FD3A0000313A000060
:10207000213A00007D390000113A0000FD3A0000CD
:10208000FD3A0000FD3A0000FD3A0000FD3A000074
:1020900000000000FD3A0000FD3A0000FD3A00009B
:1020A000FD3A0000FD3A0000FD3A0000FD3A000054
:1020B0000000000010B5064C2378002B07D1054B1B
:1020C000002B02D0044800E000BF0123237010BDA4
:1020D000200200200000000068AE0000044B10B594
:1020E000002B03D00349044800E000BF10BDC046E8
:1020F000000000002402002068AE000070B504005B
:102100000A4D0B49280002F017F80A22E1B2280014
:1021100002F099F8074B1A68A24205D0012C02D1AF
:102120000021054A11801C6070BDC046C006002019
:1021300008A500009C020020A002002010B501F0BC
:1021400021FD04000B4800F0F7FC0028FAD001F054
:1021500019FD094B001B9842F4D9084C084920008E
:1021600001F0EAFF0A220121200002F052F80120CA
:1021700010BDC04638030020E7030000940D002086
:10218000F6A400007FB50600204800F0E7FD204CD3
:10219000002806D11F49200001F0EAFF052004B005
:1021A00070BD1D49200001F0E3FF1C4D00210122FC
:1021B000280000F0DBFF1A49002817D0194B002E29
:1021C00000D1194B1968280001F0CAF8290001A8AC
:1021D00000F0DEFF154D01A9280004F035F801A834
:1021E00003F098FF2B68002B05D11149200001F066
:1021F000BFFF0820D3E70A22A968200002F02DF8CB
:102200002900200001F0AAFF0920C8E738030020B8
:10221000C00600201BA500002EA5000048030020DA
:1022200049A500002C030020900200203C02002061
:1022300068A50000F8B5114E114F3100380003F0C9
:10224000B3FF104D104C2A002100380004F0ABF809
:102250000E4F3100380003F0A7FF2A00210038009C
:1022600004F0A1F80A4F3100380003F09DFF2A0066
:102270003800210004F097F8F8BDC046A6AA000077
:102280002C030020000000201561000090020020B7
:102290003C02002030B59625AD0185B029002048CC
:1022A00002F034FC2900FA251E4CED00200003F05A
:1022B000C7FC280001F09CFC1B49200001F058FFDE
:1022C000FFF73CFF1949200001F052FFFA2080007F
:1022D00001F08EFC280001F08BFC01A8144900F0ED
:1022E0000BFD144D01A9280003F0AEFF01A803F077
:1022F00011FF2900200001F031FF0120FFF742FF0C
:1023000005000D49200001F017FF0A2229002000D6
:1023100001F07FFF0949200001F02AFF05B030BD20
:10232000940D0020C006002039A6000051A6000030
:10233000380300202C03002056A600007FA60000D2
:1023400073B5254D280002F04FFB244B1B889842A3
:1023500040DB280002F084FB214EC0B23378834278
:10236000F7D101AC2800237002F07AFB7378C0B279
:102370008342EED1022231002000637005F0C0FFDD
:10238000002827D1174C1849200001F0F1FE280041
:1023900002F066FB154E3060280002F061FB144D20
:1023A00014492880200001F0C7FE0A22316820006D
:1023B00001F02FFF1049200001F0BEFE29880A22FB
:1023C000200001F026FF2B880120002B00D10420E3
:1023D000FFF794FE73BDC046940D0020040000205A
:1023E00008000020C006002008A60000A40200206B
:1023F000A202002016A600001DA60000F7B5374C6B
:102400003749200001F0B4FE364D2B78012B16D150
:102410003549200001F0ACFE0026344F0A22F15D60
:10242000200001F00CFF01363149200001F084FE4C
:10243000072EF2D1320039002E4802F0F3FA2B7841
:10244000022B4AD12C4F2D4E3A88013B023A93423F
:1024500006DAF118E85C013901330870DBB2F6E7FF
:10246000002527492748B55403F0F6FE26492000E9
:1024700001F062FE3B88033B9D4220DA715D102231
:10248000200001F0C2FE725D204901A806F08EFC1A
:102490001F49200001F050FE01A9200001F04CFE70
:1024A0001C49200001F064FE01A9164803F0FEFE5D
:1024B00001350F49200001F03FFEEDB2DAE72000C0
:1024C00001F044FE0F49200001F048FE12492000AF
:1024D00001F04EFE0020FFF755FEF7BDC0060020BC
:1024E0007EA50000A802002094A5000032A60000EE
:1024F00058AE0000940D0020A202002048020020E7
:10250000A6AA000090020020A4A50000BCA500001F
:10251000C1A50000C4A50000C7A5000073B51A4DF1
:102520001A490400280001F023FE1949194E002C15
:1025300017D00722684605F0F2FE00246B460A22F7
:10254000195D280001F07BFE01343100280001F004
:10255000F3FD072CF2D1220069460F4802F062FA1F
:1025600073BD07310722684605F0D9FE6B460A2283
:10257000195D280001F063FE01343100280001F0EC
:10258000DBFD072CF2D1E6E7C0060020F1A5000034
:10259000E8A4000058AE0000940D002070B500249F
:1025A0001A4B1B88A34223D01948C218911E0C78DD
:1025B000013A023B127899B22402144301F0F2F975
:1025C0000600144D1449280001F0B6FD1022210028
:1025D000280001F01EFE1149280001F0ADFD102277
:1025E0003100280001F015FE0720B4420CD101246F
:1025F0000B4D2B68012B01D1FFF700FF2B68022B3D
:1026000002D12000FFF78AFF70BDC046A202002061
:10261000A8020020C0060020D7A50000E2A5000007
:10262000A402002013B50E4C200002F0DDF90128B1
:1026300014D9022201A9200002F069FA02220949F4
:1026400001A805F05DFE041E08D10749074801F006
:102650008FFDFFF7A3FF2000FFF750FD13BDC0461D
:10266000940D00200600002026A60000C0060020D1
:1026700070B5154C2368002B01D1FFF761FE23686C
:10268000012B1BD1114802F0EBF9114D114A2B8897
:10269000114EC1B2D1543000102201F0D0FD0F49CB
:1026A000300001F049FD2B880D4A013312889BB29E
:1026B0002B809A4202D80420FFF720FD2368042BC8
:1026C00001D1FFF7AFFF70BD9C020020940D0020E8
:1026D000A0020020A8020020C006002058AE000082
:1026E000A2020020704710B5040003F029FE20006C
:1026F00010BD10B50368C9B21B68984710BD10B56E
:102700000400017A406800F0EBFF02216068FFF7E7
:10271000F0FF606801F099F80023984203D101208E
:1027200001F066FA0123180010BD0000F0B5081E84
:102730001BD00020824218D08B189C46082201230F
:102740000E781C003440651EAC41C70B400080B2BF
:10275000BC4202D0054C604080B25B00013ADBB263
:10276000002AEED101316145E8D1F0BD0580FFFFBF
:10277000F0B585B000AFFC6AFB8023006E460833DD
:102780003B600733DB08DB00F31A03269D46050098
:102790001E70E01D013E58709970DA70B91D32004C
:1027A00001A805F0BCFD6B462200B96A981D05F032
:1027B000B6FD6B46621D591C2800FFF7B7FF0E23BC
:1027C000F881A01DF9183200684405F0A8FD297AA7
:1027D000686800F085FF6868694603683A685B6866
:1027E0009847686801F031F8BD464342584105B04A
:1027F000F0BDF0B5130085B000AFBA60D61C6A46D4
:102800000A33DB08DB00D31A04009D4615257960E6
:10281000FB60217A01233200606800F079FFB0424A
:1028200002D0013D002DF4D1606803685B699847D0
:10283000FB681870C0B2B04203D00020BD4605B09E
:10284000F0BDFB685D1C2E00606803681B6998473B
:10285000002806D0606803685B69984728700135D6
:10286000F2E7BB68F9685D1C2A002000FFF75EFFF5
:10287000BA68FB689B189A78FB6812025B5D134389
:102880009842DAD1BA683100786805F048FD012035
:10289000D4E7000037B504001049406800F012FF8B
:1028A0000021606800F01CFF606800F0CEFF0C4B58
:1028B000013BFDD16B46DD1D012229002000FFF701
:1028C00098FF002808D02B780020112B04D16068D5
:1028D000044900F0F7FE01203EBDC046A08601007D
:1028E000C05D000040420F00F0B58BB005000E0047
:1028F0001400FFF7CFFF002822D0002C22D00022A6
:102900001B210192009213002800FFF731FF0028DD
:1029100015D0172001F06CF9202202A92800FFF73A
:1029200068FF00280BD02700202C00DD2027300076
:102930003A0002A905F0F3FCE41BF619DDE70020DC
:102940000BB0F0BD012001F053F92800FFF7D7FECE
:102950000120F5E773B504000D001600FFF79AFF9C
:10296000002801D1002076BD0022ABB20192009276
:10297000402104322000FFF7FBFE0028F2D0732034
:1029800001F036F9402231002000FFF732FF002825
:10299000E8D0012001F02CF92000FFF7B0FE012063
:1029A000E1E773B504000D001600FFF773FF002880
:1029B00001D1002076BD0022ABB2019200924021ED
:1029C0002000FFF7D5FE0028F3D0732001F010F9A6
:1029D000402231002000FFF70CFF0028E9D0012041
:1029E00001F006F92000FFF78AFE0120E2E730B58A
:1029F00085B00400FFF74EFF002802D1002005B08B
:102A000030BD002247210192009213002000FFF701
:102A1000AFFE0028F2D00F2509206D4401F0E8F840
:102A2000012229002000FFF7E4FE0028E6D0012063
:102A300001F0DEF82000FFF762FE2878434258419B
:102A4000DDE730B585B004000D00FFF723FF002857
:102A500002D1002005B030BD402300950193012232
:102A600047212000FFF784FE0028F2D00F2509201F
:102A70006D4401F0BDF8012229002000FFF7B9FEE6
:102A80000028E6D0012001F0B3F82000FFF737FE60
:102A9000287843425841DDE7F7B504000F001500E0
:102AA0001E00FFF7F7FE002801D10020FEBDABB2EB
:102AB00001950097022247212000FFF759FE0028C8
:102AC000F3D0092001F094F8202231002000FFF714
:102AD00090FE0028E9D0012001F08AF82000FFF7DD
:102AE0000EFE0120E2E730B5002485B00500039416
:102AF000FFF7D0FEA04202D1002005B030BD019406
:102B000000942300220030212800FFF731FE002826
:102B1000F2D0022001F06CF8042203A92800FFF78C
:102B200068FE0028E8D0012001F062F82800FFF7D5
:102B3000E6FD0398E1E7000010B50400406800F0EE
:102B4000A1FD2000FFF7A6FE2000FFF7D8FD200022
:102B5000FFF7C9FFF0231B041840034BC018034BB9
:102B600018404342584110BD0000B0FFFFFFEFFF87
:102B700030B585B004000D00FFF78CFE002802D1AF
:102B8000002005B030BD20230095019303220023CF
:102B900016212000FFF7ECFD0028F1D00F251D20A5
:102BA0006D4401F025F8012229002000FFF721FEE5
:102BB0000028E6D0012001F01BF82000FFF79FFD60
:102BC000287843425841DCE773B504000D00160035
:102BD000FFF760FE002801D1002076BD0022ABB2D5
:102BE00001920092412180322000FFF7C1FD0028B0
:102BF000F2D0462000F0FCFF402231002000FFF719
:102C0000F8FD0028E8D0012000F0F2FF2000FFF7D7
:102C100076FD0120E1E7F0B589B00D0017006946A7
:102C2000202204001E00FFF75FFE002802D10020D2
:102C300009B0F0BD39002000FFF79AFF0028F6D058
:102C4000320029002000FFF7BFFF431E9841EFE745
:102C5000F0B585B006000D0003921F000A9CFFF737
:102C600019FE002803D10024200005B0F0BD042C7B
:102C700003D0202CF7D180231D4300216B46EAB2FC
:102C80009B893000019100910231FFF771FD00280E
:102C9000E9D0052000F0ACFF220039003000FFF73A
:102CA000A8FD0028DFD0012000F0A2FF3000FFF7D0
:102CB00026FDD9E773B5002204260C000B00009610
:102CC00011000500FFF7C4FF002801D1002076BDE8
:102CD000231D0096022200212800FFF7B9FF0028DB
:102CE000F4D0230000960833032200212800FFF7C8
:102CF000AFFF431E9841EAE770B50D0086B0002192
:102D0000040003F051FA69462800FFF7D3FF0028BA
:102D10001ED01221200003F01EFA00256B465E5DD6
:102D20000F2E03D80C49200003F0C0FA1022310006
:102D300003A803F058FA03A9200003F0B1FA013503
:102D400003A803F0E7F9092DE8D1200003F0C7FA42
:102D5000200006B070BDC0468EA600001FB504233B
:102D600003AC0093152223000021FFF771FF002818
:102D700006D00020A378834202D1E0784342584134
:102D800004B010BD064B0748083310B50360064B6E
:102D9000064A436060230649037203F004FB10BD3A
:102DA00090A60000380300208C04002000000020C2
:102DB000E52600000320704730B59C68039B8868B7
:102DC0009968049B95689A68059B9B68002800D0C9
:102DD0000B30002D01D00B354019002C01D00B34E5
:102DE0000019002901D00B314018002A01D00B3204
:102DF0008018002B01D00B33C01830BD5B2070470A
:102E00000A0030B50020202520320C5C2B1A002C43
:102E10000ED101302028F8D101230D0040313F357B
:102E20001478881A002C0AD1AA4204D00132F7E79C
:102E3000E4091B19F1E701201533181830BDE40926
:102E40000019F9E70420FF2903DC01387F2900DCA1
:102E50000138704702231370013B53709170704723
:102E60003023F7B5137093701D3BD3700D3B9C4618
:102E7000137107235371053BD372013B13735375D1
:102E800006339375592042230191614650701376A1
:102E90003D2000232A2786264825CE245173082169
:102EA0009072D07453763A3804339771D671157294
:102EB000D773167455745472917394741075D075D9
:102EC00093761B3210000199402205F028FA5B200E
:102ED000FEBD3023F7B50F0020241370263B53703E
:102EE000043B93700233D370223313715C335371FC
:102EF0003E3B93718633D371913B1372393B5372CE
:102F0000013B9372013BD37220370091009B1B78E9
:102F1000002B01D1012C0AD1080040313F303E780E
:102F2000CD1B002E09D1874206D00137F7E7009B61
:102F3000013C01330093E9E70125DB09E418032391
:102F4000F609AD191373E0B2EBB20193C318DBB20B
:102F5000D91D043313740223517330260021537496
:102F6000009B9173D67390741B787F2B25D81332F6
:102F7000160030002200009905F0D1F9009B3619A7
:102F80001B787F2B00D90134022333706B461B79E9
:102F9000B01C73703B787F2B03D90023F01CB370F7
:102FA000013D2A00390005F0BAF93B787F2B00D9A2
:102FB0000135200015304019FEBD1600D1741436BD
:102FC000013CD6E7312070B58C681870E0B205007E
:102FD00009355D7030259D70C51DDD7006251A729E
:102FE00013221D71033D5D7152359D71513DDD719F
:102FF0005A7298720B3318000968220005F08FF995
:1030000020000B3070BDF7B51E008B68050017005F
:103010000B9C002B04D023000622FFF7D3FF2418BB
:10302000BB68002B06D02300082239002800FFF7D8
:10303000C9FF2418B368002B06D0230007223100F3
:103040002800FFF7BFFF2418089B9B680193002B03
:1030500006D023000A2208992800FFF7B3FF24189E
:10306000099B9B680193002B06D023000B22099932
:103070002800FFF7A7FF24180A9B9B680193002BE9
:1030800005D0230003220A992800FFF79BFFF7BD14
:1030900030231370FF290DDD5233081253709070E6
:1030A000D31C19700420FF2903DC01387F2900DCC0
:1030B00001387047531C7F29F3DD8120931C507029
:1030C000EFE7000010B504000D4B083303604430F7
:1030D00003F020F82000383003F01CF820002C30DA
:1030E00003F018F82000203003F014F8200014300A
:1030F00003F010F82000083003F00CF8200010BD99
:10310000ECA6000010B50400FFF7DCFF200003F080
:1031100017F9200010BD000070B50400114B124DCE
:10312000083303602900083003F03EF8200029002E
:10313000143003F039F820002900203003F034F86F
:10314000200029002C3003F02FF82000290038300F
:1031500003F02AF820002900443003F025F820006D
:1031600070BDC046ECA60000A6AA00001300020035
:1031700010B5503241600548002B04D0FFF7EAFB40
:10318000431E984110BDFFF70CFCF9E738030020FF
:10319000F0B56D4DB3B004AF786228007963FFF7E6
:1031A00009FE7B6BB86008333B627B6B28001433ED
:1031B000FB617B6B2033BB617B6B2C337B617B6B57
:1031C00038333B617B6B4433FB6002933B69019373
:1031D0007B690093BB69FA69396AFFF7EDFD01006D
:1031E000F8622800FFF72EFE78602800FFF706FE41
:1031F000BB687A6838609E18FB6AF6183618023683
:1032000031002800FFF71EFE6A4633183B63073380
:10321000DB08DB00D31A9D46040004AB1A00310022
:103220002800BB62FFF734FFBB6A28001C1922008C
:103230000021FFF70FFEBB68F96AE418220028009E
:10324000FFF726FF7B682800E4180394FB6800263C
:1032500002933B6901937B690093BB69FA69396A00
:10326000FFF7D1FEFB6A796BE41822002800503189
:10327000FFF7F6FD3B68354DE418A0236670237018
:103280002800FFF7B4FBB04207D13149786A02F059
:103290008BFFBD46786A2FB0F0BD3B6BB34211DDAA
:1032A0009A1BBB6A99193F2A06DD2800FFF7C9FB64
:1032B0000028EAD04036F0E738232448FB18FFF70F
:1032C000EBFBF5E738264024796BBB191B19BA19BB
:1032D00049682800FFF79FFC0028D6D01A4DBA197C
:1032E00011192800FFF78CFD3B6B1C1821002800EA
:1032F000FFF7A8FD6A4623187B630733DB08DB0072
:10330000D31A9D4604AEF862320021002800FFF770
:10331000BFFEFB6A3A6BF418B96A200004F0FFFFA5
:103320003B6B2800E21838234024FB181919FFF7DB
:10333000D0FD084B32000193074B084900937B6B8B
:10334000786A00F0BBF8A4E74403002038030020AB
:10335000A6AA0000A0A60000C4A6000088040020C1
:1033600010B5443002F078FF10BD000010B5054CD8
:103370002000FFF7D1FE044A0449200003F013F8AF
:1033800010BDC0464803002000000020C5300000EA
:10339000704710B5040002F0D3FF200010BD0000FC
:1033A00010B5044B04480833044A0549036002F091
:1033B000FAFF10BDFCA60000D8030020000000208A
:1033C0009133000070B50500124BA435083303603B
:1033D00004002868002803D004F076FF00232B6047
:1033E0002000483002F096FE20003C3002F092FEB1
:1033F0002000303002F08EFE2000243002F08AFEE1
:103400002000183002F086FE20000C3002F082FE10
:10341000200070BD10A7000010B50400FFF7D2FF18
:10342000200002F08DFF200010BD000070B50400E8
:10343000164B174D0833036029000C3002F0B4FE20
:1034400020002900183002F0AFFE200029002430AF
:1034500002F0AAFE20002900303002F0A5FE200074
:1034600029003C3002F0A0FE20002900483002F084
:103470009BFE2300074A9C331A6001225A602200F7
:103480000023A43220001360536070BD10A7000019
:10349000A6AA00000CA7000010B5054C2000FFF7FD
:1034A000C5FF044A0449200002F07DFF10BDC0465C
:1034B000DC03002000000020C5330000F7B54049C0
:1034C00001920093040002F06FFE089805F096FC4C
:1034D0000700099805F092FC009B06000321981C48
:1034E00002F072FF03218500009802F06DFF4C216D
:1034F000800002F069FF2918C9198919200002F01B
:103500002AFE0899200002F0D1FE0025009B9D4272
:1035100050D2002D0DD00321280002F055FF4C2180
:10352000800002F0D7FF002903D10A31200002F009
:10353000CCFE019B234E5B5D20009B08F15C02F0FA
:10354000C4FE3022019B00995B5D1B0113406A1C85
:103550008A4226D2019A200057197A781209134319
:10356000F15C02F0B2FE3C227B7800999B00134094
:10357000AA1C8A420FD2BA78200092091343F15C48
:1035800002F0A3FE3F22BB781340F15C200002F062
:103590009CFE0335BAE7F15C200002F096FE3D2167
:1035A000F4E7F15C200002F090FE0749200002F0F1
:1035B0007DFEEEE70999200002F078FE2000FEBDB6
:1035C000A6AA000020A7000062A700000020704704
:1035D000F8B505000E0017000024BC4208D02B6887
:1035E000315D1B6828009847002801D00134F4E7BA
:1035F0002000F8BD70470300FC33196ADA69914274
:1036000003D01B6AC018007E704701204042FBE7D0
:103610000300FC33D8691B6AC01A01D50130FF30A2
:1036200070470000F7B50193FA23802600250400B7
:103630009B008360124B760008330F004560290021
:10364000009203603200183004F085FE2300200051
:10365000FC332130DD6132001D622900FF3004F0AF
:103660007AFE87239B00E3185D609D606B461B78A4
:10367000276123756B461B79A57520006375FEBD18
:1036800068A7000070B5060018250C49006901F014
:1036900043F8306900F0D0FE2B000821307D084C43
:1036A0004343E318595600F0B7FC0821707D4543A9
:1036B0006419615600F0B0FC70BDC046A0860100E0
:1036C0008CA7000070B504000D00006900F0C9FE71
:1036D0002900206901F020F8206900F0ADFE70BDDE
:1036E0008A2300229B00C1540C3BC3185A609A6085
:1036F000012383757047020010B5FC32536894684B
:103700000133DBB29C4202D054680155536010BDB6
:10371000F7B500240500170001932000A24232D023
:103720002B00FC33DC611C620122286900F0CCFE16
:103730000600A04226D02B0018330093286900F021
:1037400050FF013401000098FFF7D5FF2869BC4203
:103750000CD000F024FF002807D0286900F094FE68
:103760000221286900F09AFEE8E70600286900F0C7
:1037700082FE019B002B07D0002E07D00321286971
:1037800000F08CFEE0B2FEBD002EFBD1013CF9E75B
:10379000002210B5837D93420DD087239B00C4186F
:1037A0006368A4680133DBB2A34204D02130FF3048
:1037B000FFF7A1FF0122100010BD0300FC33996840
:1037C0005A68914206D09A68805C9A680132D2B2F7
:1037D0009A60704701204042FBE700228A2370B5BF
:1037E0009B00827505000E00C15C006900F06CFE54
:1037F000002806D10321286900F050FE0224200091
:1038000070BD872328009B00EA1853689468213014
:10381000FF301C1B01D50134FF34002C0ED02C6965
:10382000FFF7CBFFC1B2200000F090FE0028E8D1E6
:103830000321286900F032FE0324E0E7002EDED0E9
:103840000321286900F02AFED9E710B50121FFF70E
:10385000C4FF10BD10B51830FFF7AFFF10BD70B535
:103860000400006900F092FE002814D0206900F0E6
:10387000A4FE002810D0206900F006FE0321206974
:1038800000F00CFE8C239B00E558002D39D100235D
:10389000FC34E361236270BD206900F098FE0028CB
:1038A00009D0206900F08EFE002804D0206900F0C5
:1038B00093FE0028DFD0206900F089FE002826D181
:1038C000206900F075FE0028E5D0206900F084FE34
:1038D000002837D087239B00E218536892689B1A10
:1038E00001D50133FF33FF21002B05D0200021300B
:1038F000FF30FFF762FFC1B2206900F039FEA0750A
:10390000C9E7236820001B699847A847BFE72069DB
:1039100000F0BAFD2069032100F0C0FD206900F02D
:103920005BFE0028B7D0872300229B00E3185A6073
:103930009A600123A3758B239B00E3589342AAD07E
:103940009847A8E72200FC32D369126A0133DBB240
:103950002069934206D100F08EFD0321206900F01A
:103960009DFD98E700F03DFE010020001830FFF7B4
:10397000C2FE206900F088FDEFE7000010B50248A4
:10398000FFF76DFF10BDC0468C04002010B5132357
:10399000122202490248FFF745FE10BD840D0020A7
:1039A0008C040020F0B5002919D00E4B08220578B0
:1039B0005C106B409C4601276646A3B23E4202D093
:1039C000094B5C40A3B2013AD2B26D08002AEFD194
:1039D000013989B201300029E8D1D94389B2080000
:1039E000F0BDC046FFFF00000884FFFF10B50121B5
:1039F0001A2000F099FA01211A2000F0E1FA0121C1
:103A00001B2000F091FA00211B2000F0D9FA10BD14
:103A100010B5024802F097FA10BDC046C00600205B
:103A200010B5024802F08FFA10BDC046FC08002015
:103A300010B5024802F087FA10BDC046380B0020CE
:103A4000F0B51F4985B01F4800F060FC1E491F48B3
:103A500000F05CFC1E4D1F49280000F057FC1E4E74
:103A60001E49300000F052FC1D491E4800F04EFC7B
:103A70001D4F1E49380000F049FC01240323390082
:103A80000093019423000022194802F0F1F9002369
:103A90003100019300941D331E22164802F0E8F90C
:103AA00019230393013B0293163B019300941433B3
:103AB00017222900104802F097F905B0F0BDC04662
:103AC00000080042740D0020000C0042780D002018
:103AD0007C0D002000100042800D002000140042E8
:103AE00000180042840D0020880D0020001C0042B8
:103AF000C0060020FC080020380B0020FEE7000074
:103B0000034B10B51B68002B00D0984710BDC04672
:103B10008C0D002070B50F490F4CA14204D100F06C
:103B20008FF802F0E9FBFEE70C4D00238D42F6D042
:103B3000CA18E818A24205D3094B8242EFD00949BE
:103B4000002204E0006804331060F1E704C38B42F4
:103B5000FCD3E4E700000020200200206CAE00004F
:103B600020020020C813002010B500F066F80028DD
:103B700001D100F057F810BD014B18607047C046E6
:103B80008C0D0020014B18687047C046900D002036
:103B9000F7B51348012284461249134C8E686368B6
:103BA00005689B0E1340019288686268019F920E1F
:103BB0003A4067463F6893420ED1BD420CD18642DF
:103BC0000AD35B19FA254868AD00861B07486B438A
:103BD0007043000DC018FEBD3D0013000600E3E772
:103BE000900D002010E000E000ED00E055550000D1
:103BF00070B5041E10D0FFF7CBFF050000F01CF8D5
:103C0000FFF7C6FF054B401B9842F7D9FA23013C4A
:103C10009B00ED18002CF3D170BDC046E7030000F7
:103C20007047000010B5034A13680133136000F0B9
:103C300031FB10BD900D0020704700207047000040
:103C40001E22F0B5504851494368514D93431A0024
:103C500002231343436008238A691343FE228B61C6
:103C60002B68D2039B0213404A4A13434A4A93618A
:103C700013000422DC681442FCD00124474A14706B
:103C80001678264203D0567876B2002EF8DB01244F
:103C90009460547864B2002CFBDB414C546054783F
:103CA00064B2002CFBDB8224E4015480547864B2BB
:103CB000002CFBDB02249C840E34DE682642FCD000
:103CC000384CDC621024DE682642FCD02C68A40E3E
:103CD0003F2C00D1203C9E6A334FA4023E40344327
:103CE0009C629C6A314EA40AA40234439C62304C0C
:103CF000DC6200249C841034DE682642FCD02D4C0B
:103D00009C841024DE682642FCD002249E8C34431E
:103D10009C841024DE682642FCD0002494605478F1
:103D200064B2002CFBDB244C5460547864B2002C49
:103D3000FBDB1C6A214E344080261C621C6AB443A3
:103D40001C62032393601E4B536053785BB2002BBD
:103D5000FBDB0023FF240B721A4A4B728B72CB726F
:103D6000194B1A60194A2B6811689A065B01C90E33
:103D70002340520F12020B431343154A138580232D
:103D8000426813434360F0BD00400041000400401E
:103D9000246080000606000000080040000C00407F
:103DA00001040100B905FF7DFF03FFFFFF010000D3
:103DB00080BB0A1C2405000000070300FFFCFFFF76
:103DC00003060100006CDC020C0000202060800073
:103DD00000400042FA21314B10B51868890002F00A
:103DE000F3FA2F4B0138984256D82E492E4A486094
:103DF000C020136A00061B021B0A0343136200243F
:103E000007238C600B608021136A09061B021B0AC2
:103E10000B431362FC22254B196A0A431A62FC22E7
:103E2000196A92010A431A62A022196AD2020A434D
:103E30001A6220000021013400F076F81F2CF8D11E
:103E40001B4B1C005A7852B2002AFBDB194A5A80DD
:103E5000194B1A00597EC9090129FBD0E421C90078
:103E600099803F21D970537EDB09012BFBD0C02301
:103E700000205B011361907000F024F863785BB25E
:103E8000002BFBDB0D4B0E4A6380D379DB09012B42
:103E9000FBD04123537010BDFEE7C0460C0000204C
:103EA000FFFFFF0010E000E000ED00E00004004034
:103EB000000C00401E400000004000422140000075
:103EC00000480042164A00B51300517EC909012975
:103ED000FBD00138042816D81969124A0A400F216C
:103EE0001A615A788A4302F065FA0308060B030048
:103EF000110001220A435A7000BD11000322F9E7A4
:103F000011000222F6E7F02311691B050B430F2174
:103F1000136153788B43190002230B435370EBE773
:103F200000400042FFFFFFF0182330B51D000400E1
:103F300045430820204A55192856013014D003293A
:103F400012D808006343D156D31802F033FA02287E
:103F50000E1B5868CB010221184A9B181A184032D0
:103F60001170012282405A6030BD5868CB01062191
:103F7000124A9B181A1840321170012282405A606E
:103F80009A61F1E75868CB0106210C4A9B181A1870
:103F900040321170012282405A605A61E4E7586849
:103FA000CB010221054A9B181A18403211700122D8
:103FB00082409A60D8E7C0468CA7000000440041C8
:103FC0001823F0B508245843114A13181C5701341C
:103FD0001BD0012635005F688356BD400D4ADB01CA
:103FE0009A18906805420BD10C00601E8441D219CA
:103FF0004032107834400336A400B04320431070A0
:10400000044A9B18002901D15D61F0BD9D61FCE768
:104010008CA700000044004118224243F8B52C4E02
:104020000300B218127A52B2140001320ED0481CAA
:1040300000240C280AD802F0BDF9071F1F1F1F1FFC
:104040001F1F1F0B0B0B0B00012464422000F8BD47
:10405000092905D100211800FFF766FF0024F5E7C4
:104060000A2901D10839F6E700240B29EED10A39D3
:104070001800FFF759FFE9E718225343F218556873
:1040800001202C00F356134ADB016E089B18C9B2BD
:1040900004409E19002C0DD00F24303632780901CF
:1040A00022401143C9B25B19317040331A78104372
:1040B0001870D3E732000F27303216785B19BE43F1
:1040C0003143117040331A7810431870BEE7C04670
:1040D0008CA7000000440041F7B506000D000C005D
:1040E0008B180193019B671B9C4207D03368217892
:1040F0001B683000984701340028F3D13800FEBD1A
:1041000070B5040008000D0004F078FE236802007A
:1041100029005B682000984770BD10B50B1E02D0C7
:10412000FFF7EEFF0300180010BD10B503688A68A2
:104130005B680968984710BD10B5FFF7EEFF10BD2A
:1041400010B503681B68984710BD000010B5024900
:10415000FFF7D6FF10BDC046A4AA000070B5050049
:10416000FFF7E3FF04002800FFF7F0FF201870BD01
:1041700070B50400FFF7D1FF05002000FFF7E6FF50
:10418000401970BDF0B58BB06B46150000220533A9
:104190000600DA770800012D00D80A2509AC2900AD
:1041A00002F098F9CAB2130037330700DBB20929CD
:1041B00002D813003033DBB2013C2370002FEED164
:1041C00021003000FFF7A9FF0BB0F0BDF8B50600E5
:1041D0000C00151E04D10368C9B21B689847F8BDCE
:1041E0000A2A0CD100290BDA2D21FFF7A9FF614221
:1041F00007002A003000FFF7C5FF3818EFE7D2B2FA
:1042000021003000FFF7BEFFE9E710B5FFF7DEFF42
:1042100010BD70B50400FFF7D9FF05002000FFF7BF
:1042200095FF401970BD10B5002A04D10368C9B2CA
:104230001B68984710BDD2B2FFF7A4FFFAE710B58C
:10424000FFF7F1FF10BD70B50400FFF7ECFF0500AC
:104250002000FFF77BFF401970BD70B50400FFF729
:10426000E2FF05002000FFF771FF401970BD00005C
:1042700010B50400FFF7D4FC014B1C6010BDC04614
:10428000100000200122024B52421A607047C046C3
:1042900010000020164A10B51368591C26D0013BA7
:1042A0001360002B22D172B6124B134A043393428F
:1042B00013D9124A01211000147D0C42FCD0202198
:1042C000148BFF319B085B0021431183D3610C4B9E
:1042D00013800123027D1A42FCD0BFF34F8F094B9C
:1042E000094ADA60BFF34F8FC046FDE710BDC046F4
:1042F00010000020002000000302000000400041E8
:1043000002A5FFFF00ED00E00400FA050160704720
:104310009446F0B59E1E721E96416246056892074D
:104320002F6836063A4332432A60072505AC2478C5
:104330000068A4012940214342680024022B00D0D8
:104340005C03114321434160F0BD30B5C0250368D3
:10435000AD031C6812052A402243C0240904A402AC
:1043600021401143196003685A6814435C6030BDF2
:104370000123026811680B43136003681A68D207AF
:10438000FCD4DA69D207F9D47047022302681168B5
:104390000B4313600268D3699B07FCD47047036822
:1043A0001A7ED20702D41A7E9207FCD570470022EB
:1043B00003685A8370470368187E4007C00F704730
:1043C0000368187EC0097047802302685B42117E33
:1043D0000B43137670470368588B8007C00F7047F4
:1043E00002230268518B0B43538370470368187E86
:1043F000C007C00F70470368188DC0B270470368CC
:104400001A7ED207FCD589B2012019857047012296
:1044100003689A757047012203681A757047012373
:10442000026811680B43136003681A68D207FCD452
:10443000DA69D207F9D470470223026811680B4386
:1044400013600368DA699207FCD430215A8B8A43DF
:10445000110010220A435A830268D3695B07FCD417
:1044600070470221026813688B4313600268D369A6
:104470009B07FCD4704780230268DB0211685168F7
:104480000B43536070470000036803491A685A6879
:104490000A405A607047C046FFFFFBFF032230B559
:1044A000036811401C68074D5A6809042A40E40655
:1044B0001143640F5960052C03D10268D3695B076F
:1044C000FCD430BDFFFFFCFF70B5056804006B8BAA
:1044D0009B069B0F022B0DD06B8B00209B069B0F26
:1044E000032B32D06B8B9B0704D56B8B9B069B0FEA
:1044F000012B2AD16B6A49001143DB0AC9B2DB02E6
:104500000B436B622368002A13D11A7ED207FCD5B5
:104510005B8B9B069B0F022B04D0490800222000D6
:10452000FFF7D2FF2368588B4007C30F0120584084
:104530000BE0187E8007C00FF4D11A7ED207F8D5A1
:10454000C022596892020A435A6070BD036828333A
:1045500019700368187EC007C00F03D15A8BD207A9
:10456000F8D57047588B4007C30F01205840F8E733
:10457000036828331970036800201A7E520704D597
:10458000588B01234007C00F5840704703681868D4
:10459000C006400F043843425841C0B27047036818
:1045A000588B8006800F023843425841C0B2704792
:1045B0000368187E4007C00F70470368187EC00765
:1045C000C00F70470368588BC006C00F7047036860
:1045D000187E8007C00F70470368588B0007C00F14
:1045E000704703681A68D206520F052A05D11A7E51
:1045F000920702D41A7ED207F9D528331878C0B2B0
:10460000704700000368214A30B593422FD0204AFA
:1046100093422FD01F4A93422FD01F4A93422FD04C
:104620001E4A93422FD01E4A93421FD10E231922B5
:104630000121032599401B48C024016099082B40A3
:10464000AB40FC359D4089000918A4000859A843D7
:10465000C0259D402B0003430B518023DB011A43EF
:10466000114B5A805A7852B2002AFBDB30BD092325
:104670001422DDE70A231522DAE70B231622D7E7F7
:104680000C231722D4E70D231822D1E7000800429B
:10469000000C0042001000420014004200180042CA
:1046A000001C004200E100E0000C0040F8B50400EE
:1046B0000F0016001D00FFF7A5FF2000FFF758FEB2
:1046C0001C21BB000B4071072268090C0B431360CF
:1046D000842322689375012F1AD11021012E00D056
:1046E00008390C4B69431868C00001F06DFE0722C1
:1046F000216802408B895203DB04DB0C13438B815E
:10470000226803049089DB0C400B4003184390811E
:10471000F8BDC0460C000020F8B504000F00FFF7FC
:1047200071FF2000FFF77BFE1422236879001A60D6
:104730000C4B25681E68300001F046FE0A49040053
:10474000300001F041FE7D23FA215843C90001F0F9
:104750003BFEFF23241AE868053C1C4098430443B1
:10476000EC60F8BD0C00002040420F0000207047B4
:1047700070B50F26CB1D013902003240D5B22C0096
:1047800000093034092A00DD07341C70013B8B42DC
:10479000F2D170BD10B50C000B4B1868FFF7E8FFA5
:1047A00021000A4B08311868FFF7E2FF2100084B8F
:1047B00010311868FFF7DCFF2100064B183118682C
:1047C000FFF7D6FF202010BD0CA0800040A0800085
:1047D00044A0800048A0800008B4024B9C461038DA
:1047E00008BC60479547000070473F20704713B5ED
:1047F0006B460268D9710733546819000122A0473B
:1048000016BD000070B50A260B7892B06E440233D4
:1048100005000B703C220021300003F09CFD39485C
:1048200001AC06903848242107900620207768467E
:10483000364AA1742281364A364BA281FD3AFF3AAC
:104840008018C177684623390630C177684607303B
:10485000C17702A8C1770720F2770326083169449F
:10486000C87703A9CE7710212B366E443170092604
:1048700021851F3169440E700CA9053E0E7033214D
:104880002380022369440B7006360DA90E7022495D
:104890003536A1863B216E44307010A86274E277F1
:1048A00002703D3269446A440B701370402100224B
:1048B000E37023716371A37341336B4421871970D3
:1048C0005A702B7DC039A370A37263770133DBB2BA
:1048D000A3776A7D0B200D0068441543C57731200E
:1048E000684403703A23501C6B4418704123023211
:1048F0000A436B441A7021004222084800F07AFFF4
:1049000012B070BD10010424020605240904000041
:1049100001020000080B000007050000FC0D00204C
:1049200008B4024B9C46103808BC6047054800009C
:1049300070B5027D0B790C0000259A420BD10B78E3
:104940004E78A12B09D1212E05D107221F492048DD
:1049500000F050FF0135280070BD212BFBD1202E27
:104960002BD1072219491A4800F086FE174B1A78F6
:104970005978090211439A7812041143DA78120621
:104980000A439621C9008A421DD1DB79DB071AD47C
:10499000FA20FFF76DFC00210D4801F037F80125E2
:1049A000232ED8D1E378A2781B021343094A0021B1
:1049B0000748136001F02AF8CDE7222EEFD18A785C
:1049C000024BDA71D2E7FFF75DFCE4E71800002044
:1049D000FC0D00201400002008B4024B9C46103847
:1049E00008BC60473149000010B5417D006A0131C3
:1049F00000F07AFD034B1B6801335A1E93411818CF
:104A000010BDC0462000002010B5417D006A023173
:104A100000F080FD10BD10B5417D006A023100F04C
:104A200047FD10BD70B50D00417D0400130002313B
:104A30002A00006A00F034FE002801D101236360DF
:104A400070BD000010B5054C23685A1C04D10368E2
:104A50005B69984703002060180010BD200000200B
:104A6000074A0300106810B5411C03D001235B42C4
:104A7000136010BD597D186A013100F0C1FDF8E7DF
:104A8000200000207047002070470000FA239B00A0
:104A900010B583600F4B0022C3820300283383616B
:104AA0000D4B04004260C26118004433236108309A
:104AB000631D21622060DA778323A362813BE36276
:104AC0008033236300F0CCF82100103100F09CF813
:104AD000200010BD03020000A8AA0000022110B5AA
:104AE000094B1A68437D5B01D318FF339C7A21433D
:104AF0009972437D0133DBB25B01D3180122FF338E
:104B0000997A0A439A7210BDB41200207047F7B523
:104B1000050001911700FFF735F80024E860BC425A
:104B200012D2019A697D3B1B12190131286A00F0EB
:104B300007FD061E01D0A419F1E7FFF723F8EB6883
:104B4000C01AAB689842F6D32000FEBD10B50249EA
:104B50000248FFF79BFF10BDFC0D0020940D0020C4
:104B600070B50E0000254468002C0BD0236831007E
:104B70005B6820009847002802DB2D18E468F3E703
:104B800001256D42280070BD70B50D004468002CF1
:104B900008D0236829009B6820009847002802D18C
:104BA000E468F4E7200070BD70B50D00002644688D
:104BB000002C09D02368290020001B69984736186B
:104BC0002D18F6B2E468F3E730002C7070BD70B5B4
:104BD0000D004468002C08D0236829001B682000C1
:104BE0009847002802D1E468F4E7200070BD70B552
:104BF0000D004468002C06D023682000DB682900E3
:104C00009847E468F6E770BDF0B58C794578030005
:104C10002A190020072A1FDC5A68824216D15960DF
:104C20001A78C8790A7112184D711A7000220B4D4A
:104C3000D0B284420FD98F6858789600F759860011
:104C40000130775101325870F2E70200D068002835
:104C5000FBD1D160E4E70120F0BDC046D40D0020B7
:104C60000121064A10B5136805480B4004D1802481
:104C7000640004804360116010BDC046C80D002070
:104C8000CC0D0020704710B5040001F059FB200046
:104C900010BD0000F0B5822919D1C3B2294D5A01C7
:104CA000AA189169284C80010C40C0218905214334
:104CB00091612649083340187021506128685B01D2
:104CC0001A5C8A43110030220A431A54F0BD0029AD
:104CD000FCD1C026C1B21B4C4B01E3189A681A4D97
:104CE000B6052A4032439A60194A800182185A60F8
:104CF0000A000727246808325201115DB9430F00EA
:104D00000121394311559F6910493D4040182E43F8
:104D10009E6158617020115D81430800102101439C
:104D2000115599680B48A218084080214903014396
:104D300099609968890B89039960402311790B4325
:104D40001371C3E7B4120020FFFFFF8F280E00206D
:104D5000E80F0020FF3F00F0EFF310830360012312
:104D6000436072B670470368002B02D162B6BFF38E
:104D70006F8F7047F7B50600FC36B3690400002B4F
:104D800018D1B2277F00C55D6846FFF7E5FF019B9C
:104D9000EDB2013B02D3E55DEDB2FAE7684601935F
:104DA000FFF7E1FF002D01D10020FEBD706E336ED4
:104DB000C01AFAE76846FFF7CFFFD8220025019B0B
:104DC0005200013B02D3A55CEDB2FAE768460193BD
:104DD000FFF7C9FF002DE7D0D6235B00E058043B66
:104DE000E358E5E710B54468FC3043690B48DBB293
:104DF0005A01A218916808330840802149030143F1
:104E0000916091685B01890B890391602268D318D6
:104E1000402219790A431A7110BDC046FF3F00F0C5
:104E2000F7B50500FC356B694268DBB21900040078
:104E30000831106849014118C979C90711D55B01CA
:104E4000D21893689B049B0C0CD12000FFF7CAFF7B
:104E500063681A686B69DBB208335B01D3187F2281
:104E6000DA71F7BDE969002923D16B6623000126B9
:104E70006933FF33EE6168465360B227FFF76CFF7A
:104E80007F00B221019BFF31013B5A1C38D0D82250
:104E9000E6555200A25C581ED2B26254625C84464F
:104EA000002A04D120000193FFF79CFFE9E7634645
:104EB000EBE7D621490063500023EB6123001D334B
:104EC000FF3353606846D826FFF746FF0127760078
:104ED000B221019BFF31013B5A1C11D0B222A755D0
:104EE0005200A25C581ED2B26254625C8446002A10
:104EF00004D120000193FFF775FFE9E76346EBE774
:104F000068460193FFF72FFFA2E7F7B50600684652
:104F10003400FFF721FF0027FF22019BFC34013BF7
:104F20000DD3E0682169884204DBE7682069D71B5C
:104F30003F18F4E72769E1687F1A013FEFE7684609
:104F40000193FFF710FFA3696846002B52D1FFF7CA
:104F500003FFB221019B4900013B5A1C0CD0755C38
:104F60005A1EEDB2002D05D168460193FFF7FBFEF6
:104F70002800FEBD1300F0E7684601930025FFF707
:104F8000F2FEFF22236EBD4214D0616E994211D908
:104F9000591CF3182166FF33587FE36821690133F8
:104FA000C0B213408B4203D0E16871180872E3600D
:104FB0000135E7E7626E9A42DAD1002323660133B6
:104FC000A3616846B224FFF7C7FE6400B222002145
:104FD000019BFF32013B581CC6D03155B05C5F1EAF
:104FE000002805D0B15430000193FFF7FBFEEDE738
:104FF0003B00F0E7FFF7B0FED821019B4900013BE1
:105000005A1C06D0755C5A1EEDB2002DACD01300B0
:10501000F6E768460193FFF7A6FED623D4225B008D
:1050200000259C465200B358BD4203D061467158DA
:10503000994220D86246B2589A4299D1D42200238C
:105040005200B3506846A361D824FFF785FE640080
:10505000B2220021019BFF32013B581C00D183E7A3
:105060003155B05C5F1E002819D0B1543000019357
:10507000FFF7B8FEECE7591CB150FF21F318693374
:10508000FF331878E368C0B201330B4021698B42CB
:1050900003D0E16871180872E3600135C3E73B0093
:1050A000DBE710B50400FFF730FF2300FC3319697C
:1050B000DA68914203D01B69E418207A10BD012000
:1050C0004042FBE710B50400FC34FFF71EFFE06828
:1050D0002369C01A01D50130FF3010BDF0B585B08D
:1050E000019200910500FFF710FF02A8FFF734FEC0
:1050F00001200024FF26039B40425A1E531C1FD050
:105100002B00FC3301998C4218D2D9681F69C91B46
:1051100001D50131FF31002910D01969DF688C46B3
:105120000100BC4506D019691F696918013737406D
:10513000097A1F61009F39550134E3E7013ADDE741
:1051400002A80392FFF70FFE200005B0F0BD37B5AF
:105150006B46DC1D00230D002370FFF781FD21004D
:10516000FFF7FEFC2B681818286020783EBD000071
:105170002023F7B5474A0500D1690F200B43D361BF
:10518000012245490B7813430B70444B1978814336
:10519000197006211C782143197041490C7822436B
:1051A0000A701A7802401A70602219780A431A703D
:1051B0003C4B3D4A5A805F78FF09FCD13B48FEF7E3
:1051C000DBFC01233A4C3B4E2268300011780B4344
:1051D000137080223900520003F0BDF822689378E2
:1051E000DB07FCD456621F26334B1B68590B980C07
:1051F0009B01314030405B0FB14200D105211F2897
:1052000000D10238072B00D1043B31408901178DB2
:1052100001912A4930400F40019939431185118D80
:105220000700B143080038431085118D1803244B43
:105230007F260B4003430C2013850823D17881433C
:105240000B430321D3702268D3788B4301390B437E
:10525000D3702268137833401370042322681678C1
:10526000334313702268C1241389A4008343154873
:10527000138103591B021B0A035180230360137817
:1052800011481943012311702B700021FFF73EFCD8
:10529000F7BDC04600040040584400413C44004172
:1052A00059440041000C0040064000001D5C000015
:1052B000B4120020B8120020246080003FF8FFFFE5
:1052C000FF8FFFFF00E100E0940D00200078002830
:1052D00010D00121084B1B681A898A431A810822C1
:1052E000198B0A431A830422198B0A431A8300225A
:1052F000024B1A607047C046B4120020AC12002066
:1053000010B50F4A93699B0B9B03936113680222AC
:10531000FF331A729879823A02439A711A7A920785
:10532000FCD57F24074A2140937A0800A343190043
:10533000802301439172917A5B420B43937210BDBB
:10534000B41200200050004110B50C00FFF788FC9B
:105350002100FFF73CFC002804D1034A93699B0B12
:105360009B03936110BDC046B4120020F7B50D0039
:10537000832A19D1CBB2404C5A01A21891693F48F7
:10538000AD010840C0218905014391613C49206875
:105390006D187021083355615B011A5C8A43110056
:1053A00040220A431A54F7BD022A5FD1354B8A00C6
:1053B000D058002802D003685B699847DA20400083
:1053C00000F0BAFF802204002B4E2F4B4660036092
:1053D00052000021083002F0BEFF2200B22100235B
:1053E000FC324900D3605561136113669361D36148
:1053F0005366635444316350043163500431635441
:10540000B221FF316354FF202B0003405901019367
:1054100071188F68194BAD003B40C027BF051F4373
:105420008F600727019B366808335B01995DB9439C
:105430000F000321394399552300516966680140E3
:105440001D334901FF3371184B60636852691B6853
:10545000024052019B1801221B18997A20000A432E
:105460009A72FFF7BFFC074BEC509CE71100280035
:10547000FFF710FC97E7C046B4120020FFFFFF8F34
:10548000280E0020000E002008AB000070B50500BB
:105490000124064BA200D258002A06D02100280081
:1054A0000134FFF763FF0A2CF3D170BDD40D002047
:1054B0000B4BCAB20B488901C9185301C318596173
:1054C00099690832890B89039961036852019A1816
:1054D0000223D3715179823B0B4353717047C0460D
:1054E000280E0020B4120020084B8A00D05810B5B6
:1054F000002803D003689B68984710BDC9B2044BCD
:105500004901591888688004800CF6E7000E0020D5
:10551000B412002010B50C00FFF7E6FF00280CD0F5
:10552000064BE4B21B68083464011C1980236279BD
:105530005B42134363710223E37110BDB412002078
:10554000F0B51C002A4B85B01B6807000D000292C5
:10555000002B4AD0274B8A00D058002808D0036877
:1055600022005B68029998470400200005B0F0BD56
:105570003800FFF7B9FF844204D929003800FFF74B
:10558000B3FF04000121EBB21B4E03935B010193B7
:10559000F21893689B0B9B039360019A33680298FF
:1055A0009B18FF335A7A0A435A72144BA901C9183F
:1055B000220002F0B4FE002CD7D029003800FFF7FB
:1055C00093FF0028D1D14021039B326808335B014F
:1055D000D3181879014319710121D971019BD3188E
:1055E000FF339A7A0A439A72BFE701246442BCE708
:1055F000AC120020000E0020B4120020E80F0020A2
:1056000013B56B46DC1D22000123FFF799FF01282B
:1056100001D1207816BD01204042FBE770B5CBB226
:10562000124A13485C018901891802195160916876
:10563000104D08330D4080214903294340259160D6
:105640009168890B8903916001685A018A1816795B
:105650003543157195796D06FCD55B01C918CB7979
:10566000DB07FCD500198068C0B270BDE80F0020D0
:10567000B4120020FF3F00F070B50D0000211400AF
:10568000FFF7CCFFA04200D9200000230349A3422A
:1056900003D0CA5CEA540133F9E770BDE80F00207B
:1056A000F0B51E003A4B85B01B680F000192002B2D
:1056B00035D08023DB019E4231D80025354B8A014D
:1056C000D3180293002E2CD0334B1B680393FF2377
:1056D0003B401C0000930834039B64011C19A37910
:1056E000DB0921D02D4B2E49186800F06DFE2D4BA3
:1056F0001721584300F068FE2B4BE279920713D430
:10570000DA5D002A01D10138F7D20122DA55009B77
:105710005A01214B9B189A69920B92039A610125B9
:105720006D42280005B0F0BD00221F4B3400DA5551
:105730003F2E09D9009B40245A01174B9B18802209
:10574000996912060A439A6122000199029802F0AF
:10575000E6FD009BA1045A010F4B890C9B18029A8D
:105760002D195A619A69361B920B92030A439A616A
:10577000009B039A08335B01D3180222DA7159792E
:10578000823A0A435A71019B1B1901939AE7C0465A
:10579000AC120020280E0020B41200200C000020C3
:1057A00040420F00701101001D0E002070B50D0069
:1057B0001C000D4BAE01F61811003000220002F063
:1057C000AEFDEDB209496D014D196E61AB69084A34
:1057D00020001340AB61AB69A2049B0B920C9B03AE
:1057E0001343AB6170BDC046280E0020B4120020E8
:1057F000FF3F00F0F7B5104B01901B780F0015002C
:10580000002B0CD10D4B16001C78002C09D00C4E2F
:105810000C4834882018641902F081FD3480280077
:10582000FEBD002EFBD03A19330000210198FFF78E
:10583000BDFF2418361AF4E7A8110020A912002091
:10584000AA120020A9110020F8B50F0016000024AC
:10585000012A26D9100002F02DFD0500380003F0C2
:10586000CDFA032302220130400028706B7096426B
:105870000DD9397800290AD0531CDBB20137A9545D
:105880009E4203D00232EC54D2B2F0E7320029003B
:105890000548FFF7AFFF441EA041C4B2280002F044
:1058A00013FD2000F8BDC046FC0D0020F0B500241B
:1058B000012685B0184B0F0069461E700500009444
:1058C000FFF745FC154B01A90B806A3BFF3BCB71F1
:1058D0005A330B72009B8C7109334B800E4B4E7107
:1058E00008711C703A00092F0FD00D4F09223E702D
:1058F0000C4E280000943480FFF77CFF6946280096
:10590000FFF725FC328808493C702800FFF772FF3A
:10591000012005B0F0BDC046A8110020090200001A
:10592000A9120020AA120020A911002070B5CE787B
:1059300092B005000C00022E0BD18B79C9792E484C
:1059400009021943FFF7B2FF411E8841C0B212B0ED
:1059500070BDFFF785F92100FFF716F9002803D085
:10596000C117081AC00FF2E7012E0ED1E279A37910
:1059700012021A432149112A3CD8D2B2002A39D046
:105980002800FFF737FF0120E1E7032EDFD1A378DE
:10599000002B28D0022B08D1E279A37912021849F2
:1059A0001A432800FFF750FFD1E7012B05D1E27918
:1059B000A37912021A431349F3E7032BC7D101005D
:1059C000412201A802F0C7FCFFF74AF901A9FFF73D
:1059D000EBF8002805D0E279A37912021A4301A955
:1059E000DFE70378FFDEE279A37912021A43064962
:1059F000032AC2D90A78C3E7FC0D002048AB000097
:105A000024AB00003CAB000038AB0000CBB2044933
:105A10005B01C9188B699B0B9B038B617047C04668
:105A2000B412002037B5050048780C000B2810D8B8
:105A300000F0C0FC061B0F2B0F404561494C5A5D1E
:105A4000097801AA002906D1022311802800FFF756
:105A5000ADFE01203EBD00231380284B1B78012B97
:105A600000D1137002230021F0E78A780023012A75
:105A700003D101AA1380224BF0E7204A1370214A78
:105A800093699B0B9B039361E3E78C78012C06D110
:105A900000211B4B01AA1C7011702300D6E70120C6
:105AA000002CD7D1154B174A187093699B0B9B0399
:105AB0009361CFE789782800FFF722FCC9E7280027
:105AC000FFF734FFC6E701230F4ACCE70B7800202D
:105AD000DB06BFD12800FFF7D9FCA2780A4B0B48A0
:105AE0001A60FEF7FBFFCAE70123094ABBE78A7881
:105AF000074B1A60C3E70020ACE7C0461C0E00202D
:105B0000240E0020B4120020AC120020940D0020BE
:105B1000B01200203B4BF7B51E780500002E5FD178
:105B2000394C23689A8B12070DD5082231009A83CD
:105B30003000FFF7AFF810222368FF33997A0A4349
:105B40009A72324B1E6023689A8B520701D5042249
:105B50009A83FF331A7A920603D52022597A0A4390
:105B60005A721A7AD20623D569460800284AC0CA52
:105B7000C0C0A268920B9203A260402258790243EF
:105B80005A7160230A7828001A422AD1FFF74AFF87
:105B90002368FF33002827D08022997952420A4394
:105BA0009A711A7A520603D54022597A0A435A72D8
:105BB0007F2601252368FF331E722F0023680837D4
:105BC0007F01DB19DB79002B07D0124BAA00D058DC
:105BD00000280DD003681B6898470135082DECD1CB
:105BE000F7BDFFF7B1FBD3E720210B4A9171D8E74E
:105BF000FFF736F82900FEF7FAFF2368DF19FE7178
:105C0000EBE7C046A9120020B4120020AC1200201D
:105C1000E80F0020000E0020FF50004110B50248A0
:105C2000FFF778FF10BDC046FC0D0020014B024A73
:105C30001A607047B41200200050004101207047E4
:105C400010B50368014A1B6A984710BD1304000091
:105C50000300FC33D9699A69914203D0DB69C0180B
:105C6000007D704701204042FBE710B50400006949
:105C7000FEF77EFB22000023FC329361D361862273
:105C80009200A4186360A36010BDF0200140303979
:105C9000484248417047F0231B01194080230620E9
:105CA0009B0099420AD00133FF330130994205D05D
:105CB000802302385B00994200D0002070470F20FB
:105CC00001400020012903D00239481E8141481CAF
:105CD000704700008923F0B5182685B002919B001B
:105CE0000400C05C330008214343324D1700EB1819
:105CF0005956FEF791F9304B0821E05C33004343DD
:105D0000EB185956FEF788F92C4BE25C0393022AF4
:105D100009D11133E05CFF2805D008214643AE19B4
:105D20007156FEF779F98A26B600A05DFF2819D0D2
:105D30000121FEF7F9F81822A35D21495A43AB5619
:105D4000AD18DB0158188B21890060501D490122D4
:105D50005B188C218900635069688A408D21890015
:105D600062501A600122029B11002069FEF79EFC1E
:105D700039002000FFF78FFF390005002000FFF7F2
:105D80009EFF390006002000FFF77FFF33000090E0
:105D9000290020690122FEF7BBFA0B4B2069E25C67
:105DA000039BE15CFEF7D1FA2069FEF7EEFA05B03D
:105DB000F0BDC0468CA700002502000027020000AD
:105DC000184400411444004126020000802210B50E
:105DD00004005200002102F0BEFA23000022FC332E
:105DE0005A6020009A6010BDF0B585B01D000AAB66
:105DF0001B78040000930BAB1B78160001930CABCF
:105E00001B780F0002930DAB1B78039300234360B4
:105E1000FA239B008360124B083303601430FFF7B2
:105E2000D5FF20001D30FF30FFF7D0FF89236A46E1
:105E30009B002761E6540B4B1278E5540A4B200077
:105E4000E2546A46094B1279E2546A46127A0133E7
:105E5000E2546A46127B1033E25405B0F0BDC046EE
:105E60005CAB0000250200002602000027020000B3
:105E7000F7B51D0008AB1B780400009309AB1B7835
:105E80001600019300234360FA239B008360114BAB
:105E90000F00083303601430FFF798FF20001D3017
:105EA000FF30FFF793FF89236A469B002761E65482
:105EB000094B1278E554094B2000E2546A46084B1E
:105EC0001279E2548A22293BFF3B9200A3541032FC
:105ED000A354FEBD5CAB00002502000026020000BA
:105EE000270200000300FC3358689B68C01A01D5E4
:105EF0000130FF30704710B5040020001D30FF3026
:105F0000FFF7F0FF0028F8D12069FEF748FA10BD2E
:105F100010B51430FFF7E6FF10BD0300FC335968DD
:105F20009A68914204DB5A689868801AFF3070477B
:105F300098685B68C01A0138F9E710B51D30FF306A
:105F4000FFF7EBFF10BD10B504000069FEF743FA40
:105F5000002805D02069FEF74EFA2069FEF740FAC6
:105F60002069FEF728FA002820D02069FEF743FABE
:105F70002200FC329369D1690133DBB28B4203D03A
:105F800091696118087593618A239B00E35CFF2B7C
:105F90000CD020001430FFF7C0FF092806DC8B234B
:105FA0008D229B009200E358A2581A602069FEF7E8
:105FB0001DFA00281AD020001D30FF30FFF792FF95
:105FC000002822D086239B00E31899685A689142E2
:105FD00018D08E219A684900A218515C9A68013243
:105FE000D2B29A60C9B22069FEF709FA2069FEF7B9
:105FF000E7F9002805D02069FEF7E6F92069FEF7E9
:10600000D6F910BD01214942ECE72069FEF703FAF9
:10601000ECE7000070B5040000690D00FEF7E6F93A
:1060200000283ED1FF2686239B00E3185A68996812
:10603000013232408A4223D1EFF31083DB0710D4C0
:106040001E4B5B68DB05DB0DEDD0103B5BB2002B1C
:1060500010DA0F221340083B9B08194A9B009B183B
:106060001B682069FEF7C2F90028DCD02000FFF78A
:106070006AFFD8E79B08C033124A9B009B58F0E7A1
:106080005A68013216409A68964205D08E215A68A5
:106090004900A21855545E602069FEF7B8F9012046
:1060A00070BD20001D30FF30FFF71CFF0028B9D164
:1060B00029002069FEF7A3F9F1E7C04600ED00E0F2
:1060C0001CED00E000E100E0030070B5FC33D9698D
:1060D0009A69040091421AD0DA698218157DDA694A
:1060E0000132D2B2DA618A239B00E35CFF2B0CD031
:1060F00020001430FFF711FF0A2806DD8C238D22C3
:106100009B009200E358A2581A60280070BD012538
:106110006D42E8E710B504000068002801D002F0E5
:10612000D3F8200010BD10B504000068002801D08D
:1061300002F0CAF800232360A360636010BD70B54D
:1061400004000D000068013102F014FE031E01D0AE
:10615000012028C470BD036810B50400002B04D0D2
:1061600043688B4201D3012010BD2000FFF7E7FFF9
:106170000028F9D0A368002BF5D122681370F2E74C
:1061800070B50E00110004001500FFF7E4FF0028B1
:1061900004D12000FFF7C7FF200070BDA5603100CB
:1061A000206802F023FEF7E7002370B504000D001D
:1061B000036043608360994207D0080002F01EFE2E
:1061C000290002002000FFF7DBFF200070BD70B542
:1061D000050008000C0002F011FE2100020028005A
